:100000000C9452000C94F1020C946F000C946F004D
:100010000C946F000C946F000C946F000C946F00A4
:100020000C946F000C946F000C946F000C946F0094
:100030000C946F000C946F000C946F000C946F0084
:100040000C946F000C946F000C946F000C946F0074
:100050000C946F000C946F000C946F000C946F0064
:100060000C946F000C946F004E414E494E49545908
:10007000494E46CDCCCC3D0AD7233C17B7D1387773
:10008000CC2B329595E6241FB14F0A000020410089
:1000900000C84200401C4620BCBE4CCA1B0E5AAED3
:1000A000C59D740011241FBECFEFD8E0DEBFCDBFC9
:1000B00011E0A0E0B1E0E8E8F5E102C005900D92A2
:1000C000AE32B107D9F721E0AEE2B1E001C01D9236
:1000D000A337B207E1F70E94CA050C94C20A0C9438
:1000E000000090E09093C5008093C400E1ECF0E044
:1000F00080818860808386E08093C200089580912B
:10010000C00087FFFCCF8091C60008959091C00089
:1001100095FFFCCF8093C6000895CF93DF93EC0149
:100120008991882319F00E948600FACFDF91CF9140
:10013000089590E09093C5008093C400E1ECF0E056
:1001400080818861808386E08093C20008958091D9
:10015000C00087FFFCCF8091C60008959091C00039
:1001600095FFFCCF8093C60008951F93CF93DF9334
:10017000EC0110E0812F992787FD9095FE010190F9
:100180000020E9F73197EC1BFD0B8E179F0740F419
:10019000FE01E80FF91F80810E94AE001F5FEACFC9
:1001A0008DE00E94AE008AE0DF91CF911F910C9408
:1001B000AE004F925F926F927F928F929F92AF921A
:1001C000BF92CF92DF92EF92FF920F931F93CF9344
:1001D000DF93CDB7DEB7A3970FB6F894DEBF0FBE9F
:1001E000CDBF8C0160E071E00E948208E0E00097E2
:1001F000A9F0FF24F394FE0EEE0FFF0B21E030E098
:100200002C0F3D1FE20FF31F9183808360E071E0AC
:1002100080E090E00E948208EF2DE9CF8B859C85DD
:100220000E946408780135E6E30EF11CF701918322
:1002300080838D859E850E946408F801E959FF4FEF
:100240009183808389899A890E946008F801EF5818
:10025000FF4F6083718382839383F7018081918153
:10026000892B09F46EC019A21AA21BA2CB80DC80D4
:10027000F601808189A381818AA3CE0181960E94A3
:1002800064087C01C60102960E9460082B013C01B3
:100290005801F9E6AF0EB11CB701882777FD8095AC
:1002A000982F0E944D076B017C0120E030E040E771
:1002B00052E4C301B2010E94B2069B01AC01C70126
:1002C000B6010E944A06F50160837183828393839D
:1002D0001D8E1E8E1F8E18A2CF80D884F6018081BD
:1002E0008D8F81818E8F82818F8FCE014D960E945E
:1002F00064087C01C60103960E9460084B015C0102
:1003000003591F4FB701882777FD8095982F0E94CA
:100310004D076B017C0120E030E040E752E4C5016D
:10032000B4010E94B2069B01AC01C701B6010E9454
:100330004A06DC01CB01B058F80180839183A28387
:10034000B383A3960FB6F894DEBF0FBECDBFDF9187
:10035000CF911F910F91FF90EF90DF90CF90BF90C2
:10036000AF909F908F907F906F905F904F90089587
:10037000EF92FF920F931F93CF93DF937C01C0E026
:10038000D0E08C010C591F4F0E94A700209711F458
:100390008432B9F1873421F4C130D10539F434C045
:1003A000803559F4C230D10581F431C0C330D10554
:1003B00089F1C430D10549F430C0813431F4C530FD
:1003C000D10519F4C6E0D0E0DFCFC630D10541F544
:1003D000F801908121E0290F2083F701E90FF11D39
:1003E00097FDFA9580838D3079F6C7010E94D90078
:1003F000F8011082DF91CF911F910F91FF90EF9044
:100400000895C1E0D0E0C0CFC2E0D0E0BDCFC3E0EE
:10041000D0E0BACFC4E0D0E0B7CFC5E0D0E0B4CFF1
:10042000C0E0D0E0B1CF3F924F925F926F927F9247
:100430008F929F92AF92BF92CF92DF92EF92FF92F4
:100440000F931F93CF93DF932B013C01EA01B22E50
:100450000E941A076B017C018B014AE0BE01C601B4
:100460000E94AE0820E030E0A901C301B2010E9461
:10047000AE0687FF08C077FA709477F8709400276B
:1004800011270C191D09FE0101900020E9F7319791
:10049000EC1BFD0B332433943E0E8E2E992487FCE7
:1004A0009094FE01E80DF91D8EE28083E12CF12C81
:1004B0008B0C911CB7FC9A94C32CCE0CDD24C7FC8A
:1004C000D094BFEFEB1AFB0A8C149D043CF1B801E9
:1004D000882777FD8095982F0E944D079B01AC01DE
:1004E000C301B2010E94490620E030E040E251E43D
:1004F0000E94FD072B013C010E941A07DC01CB0181
:100500008C014AE0A12CB12CB5010E94AE08FE017D
:10051000EC0DFD1DD5018C918083CECFDF91CF9165
:100520001F910F91FF90EF90DF90CF90BF90AF9011
:100530009F908F907F906F905F904F903F90089525
:100540000F931F93CF93DF93CDB7DEB7E2970FB62C
:10055000F894DEBF0FBECDBF8C01FC01E759FF4F01
:10056000608171818281938126E0AE014F5F5F4F90
:100570000E94130282E091E00E94B500CE01019634
:100580000E94B500F801E359FF4F608171818281BB
:10059000938126E0AE014F5F5F4F0E94130280E11E
:1005A00091E00E94B500CE0101960E94B500E2964E
:1005B0000FB6F894DEBF0FBECDBFDF91CF911F9174
:1005C0000F91089552985A9AE9E6F0E0808183608D
:1005D0008083E89A7894EBE6F0E0808180688083FD
:1005E00008951F920F920FB60F9211242F933F93ED
:1005F0004F935F936F937F938F939F93AF93BF932B
:10060000EF93FF9381E391E09F938F938DB79EB714
:10061000815491090FB6F8949EBF0FBE8DBFADB740
:10062000BEB7119681E4E0E3F1E001900D928A9566
:10063000E1F70E948A0580936F018DB79EB78D5BAD
:100640009F4F0FB6F8949EBF0FBE8DBFFF91EF91E5
:10065000BF91AF919F918F917F916F915F914F91DA
:100660003F912F910F900FBE0F901F901895FC0196
:1006700020812EBD615071096115710531F0FC01B9
:1006800021810DB407FEFDCFF4CF0DB407FEFDCFE1
:100690000895F89484B18C6084B981E58CBD789418
:1006A000089584B18C6284B924982A9A8CB5837D8C
:1006B0008CBD8DB581608DBD8CB580618CBD8CB5D8
:1006C00080648CBD08958EBD0DB407FEFDCF8EB540
:1006D0000895FC0161157105B1F080818EBD6150F6
:1006E00071096115710551F081810DB407FEFDCFCF
:1006F0009EB58EBD8081890F8083F1CF0DB407FE3A
:10070000FDCF8EB5808308956115710511F00C94AD
:10071000370308952A9808952A9A08958EBD0DB436
:1007200007FEFDCF089580E184B980E48CBD089573
:100730000DB407FEFDCF8EB508950E945103F894C5
:100740008CB5837F8CBD8CB58F7D8CBD8CB58C7F3B
:100750008CBD8DB58E7F8DBD78940895CF93DF933A
:1007600000D000D0CDB7DEB7F8946C838B830E94A5
:100770008A038B81806889836C816A8362E070E080
:10078000CE0101960E9437030E948C0378940F904B
:100790000F900F900F90DF91CF910895F894219AC8
:1007A0002A988F770E94630380E00E9463032A9A4D
:1007B00078940895CF93DF93EC0168818FE20E94D3
:1007C000AE03698180E3DF91CF910C94AE03CF93A8
:1007D000C82F692F8CE20E94AE036C2F8DE2CF915F
:1007E0000C94AE03CF92DF92EF92FF9220E034E2BE
:1007F00044E759E40E94FD0720E034E244E752E474
:100800000E94B2060E941F076B017C01B701882776
:10081000992787E00E94AE0399278F2D7E2D6D2D9D
:1008200088E00E94AE036C2D89E0FF90EF90DF908E
:10083000CF900C94AE03CF93DF9300D0CDB7DEB74B
:10084000389A419A2FEF8FEF92E0215080409040EC
:10085000E1F700C000C041982FEF8FEF92E02150E8
:1008600080409040E1F700C000C06FE88CE30E9438
:10087000AE0360E38FE60E94AE0365E58AE50E9461
:10088000AE0360E78CE50E94AE038DE789838DE8B7
:100890008A83CE0101960E94DA0384E090E00E94F0
:1008A000E70360E070E089ED93E40E94F2030F90AB
:1008B0000F90DF91CF910895CF93C82F81E00E94D0
:1008C000CE03682F637ECC716C2B81E0CF910C94AA
:1008D000AE03CF93C82F80320CF0CFE181E10E94AC
:1008E000CE03807E6C2FC7FD6F5F6595682B81E11D
:1008F000CF910C94AE03CF93C82F882311F06FE0F3
:1009000001C06AE183E10E94AE0381E1CC2331F0B2
:100910000E94CE03682F6F71606604C00E94CE03F0
:10092000682F6F7181E1CF910C94AE031F93CF9329
:10093000DF93EC01162F88818617C9F161110FC072
:10094000188265E58AE50E94AE0360E78CE50E94A7
:10095000AE0384E0DF91CF911F910C945C04613071
:1009600089F465E58AE50E94AE0360E78CE50E94A4
:10097000AE0380E10E945C0460E485E20E94AE0365
:1009800080E012C0623099F46DE58AE50E94AE0302
:100990006CE78CE50E94AE038CE00E945C0460E092
:1009A00085E20E94AE0381E00E947B041883DF9100
:1009B000CF911F910895CF92DF92EF92FF920F9304
:1009C0001F93CF93DF93EC01CB01F89460E00E947A
:1009D0009604229A2A9880E00E94630380E00E9495
:1009E0006303D82E8823A1F0C12CE82EFF24E7FC56
:1009F000F0942C2D30E02E153F0554F48E01020F9B
:100A0000131F80E00E946303F8018083C394F1CF39
:100A10002A9A78948D2DDF91CF911F910F91FF909D
:100A2000EF90DF90CF9008950F931F93CF93DF93B4
:100A3000EC018FAD882379F01FAE8E010F5F1F4F41
:100A4000B801CE0102960E94DB048EAF61E0C801BE
:100A50000E94960481E0DF91CF911F910F9108953C
:100A60009F92AF92BF92CF92DF92EF92FF920F933D
:100A70001F93CF93DF9300D0CDB7DEB76C018B010E
:100A8000A42E8CE38417C4F1F89460E0C8010E949E
:100A9000960487E20E94CE0387FFFBCF229A2A9812
:100AA00080E88983AA8262E070E0CE0101960E940C
:100AB0003703912CBB24A7FCB094E92CF12CEA1449
:100AC000FB047CF4EC0CFD1CF70180810E946303A5
:100AD000F7018081992787FD90950E948600939465
:100AE000ECCF2A9A789462E0C8010E94960488E2CA
:100AF0000E94CE0383FFFBCF0F900F90DF91CF9129
:100B00001F910F91FF90EF90DF90CF90BF90AF902B
:100B10009F9008951F93CF93DF9300D0CDB7DEB79A
:100B20002B968EAD9FAD2B979A838983FC01108104
:100B3000113039F0E981FA811081113041F010E073
:100B40000FC088E20E94CE0382FFF4CF09C08FE17C
:100B500091E00E948D0060E0CE0109960E9496040B
:100B6000812F0F900F90DF91CF911F91089561E039
:100B700083E20E94AE0383E20E94CE0381FFFBCF9B
:100B800084E20E94CE03992781950CF49095959567
:100B900087950895CF93DF93CDB7DEB7C557D109B9
:100BA0000FB6F894DEBF0FBECDBF0E94E2028FE207
:100BB0000E9499000E944903A6961FAEA69780E165
:100BC000809330011092310110926E0110927001E9
:100BD000399A41982FEF8FEF92E02150804090405A
:100BE000E1F700C000C0419A2FEF8FEF92E0215053
:100BF00080409040E1F700C000C00E949D030E9429
:100C00001B0461E081E391E00E94960480916F01F2
:100C10008823E9F02FEF8FEF9BE321508040904035
:100C2000E1F700C0000010926F0161E371E082E320
:100C300091E00E94DB0480936E0161E081E391E02A
:100C40000E94960482E391E00E94B500DFCFF89401
:100C50008091C10080688093C1002FEF8FEF9BE3EC
:100C6000215080409040E1F700C000000E947F00CA
:100C70000E948600CE0101960E94B801CE01019625
:100C80000E94A0028091C1008F778093C100789468
:100C9000BDCF5058BB27AA270ED075C166D130F002
:100CA0006BD120F031F49F3F11F41EF45BC10EF4C0
:100CB000E095E7FB51C1E92F77D180F3BA176207BE
:100CC00073078407950718F071F49EF58FC10EF431
:100CD000E0950B2EBA2FA02D0B01B90190010C014C
:100CE000CA01A0011124FF27591B99F0593F50F464
:100CF000503E68F11A16F040A22F232F342F4427BC
:100D0000585FF3CF469537952795A795F0405395B3
:100D1000C9F77EF41F16BA0B620B730B840BBAF083
:100D20009150A1F0FF0FBB1F661F771F881FC2F7EE
:100D30000EC0BA0F621F731F841F48F48795779502
:100D40006795B795F7959E3F08F0B3CF9395880FB9
:100D500008F09927EE0F979587950895D9D008F454
:100D600081E008950CD00FC107D140F0FED030F0E3
:100D700021F45F3F19F0F0C0511139C1F3C014D113
:100D800098F39923C9F35523B1F3951B550BBB2752
:100D9000AA2762177307840738F09F5F5F4F220FFF
:100DA000331F441FAA1FA9F333D00E2E3AF0E0E8F8
:100DB00030D091505040E695001CCAF729D0FE2F44
:100DC00027D0660F771F881FBB1F261737074807D6
:100DD000AB07B0E809F0BB0B802DBF01FF2793588C
:100DE0005F4F2AF09E3F510568F0B6C000C15F3FDB
:100DF000ECF3983EDCF3869577956795B795F79574
:100E00009F5FC9F7880F911D9695879597F908956B
:100E1000E1E0660F771F881FBB1F62177307840707
:100E2000BA0720F0621B730B840BBA0BEE1F88F716
:100E3000E095089504D06894B111D9C00895BCD04C
:100E400088F09F5790F0B92F9927B751A0F0D1F0B3
:100E5000660F771F881F991F1AF0BA95C9F712C03D
:100E6000B13081F0C3D0B1E00895C0C0672F782FB2
:100E70008827B85F39F0B93FCCF3869577956795A9
:100E8000B395D9F73EF490958095709561957F4F15
:100E90008F4F9F4F0895E89409C097FB3EF49095BB
:100EA0008095709561957F4F8F4F9F4F9923A9F043
:100EB000F92F96E9BB279395F695879577956795D2
:100EC000B795F111F8CFFAF4BB0F11F460FF1BC016
:100ED0006F5F7F4F8F4F9F4F16C0882311F096E9A9
:100EE00011C0772321F09EE8872F762F05C0662357
:100EF00071F096E8862F70E060E02AF09A95660F10
:100F0000771F881FDAF7880F9695879597F90895C8
:100F1000990F0008550FAA0BE0E8FEEF161617060A
:100F2000E807F907C0F012161306E407F50798F072
:100F3000621B730B840B950B39F40A2661F0232B8B
:100F4000242B252B21F408950A2609F4A140A69507
:100F50008FEF811D811D089597F99F6780E870E0EC
:100F600060E008959FEF80EC089500240A9416161F
:100F7000170618060906089500240A941216130687
:100F8000140605060895092E0394000C11F4882315
:100F900052F0BB0F40F4BF2B11F460FF04C06F5F31
:100FA0007F4F8F4F9F4F089557FD9058440F551F07
:100FB00059F05F3F71F04795880F97FB991F61F0DB
:100FC0009F3F79F087950895121613061406551F52
:100FD000F2CF4695F1DF08C0161617061806991FBE
:100FE000F1CF86957105610508940895E894BB27B3
:100FF00066277727CB0197F908950BD0C4CFB5DFCB
:1010000028F0BADF18F0952309F0A6CFABCF112452
:10101000EECFCADFA0F3959FD1F3950F50E0551F97
:10102000629FF001729FBB27F00DB11D639FAA273D
:10103000F00DB11DAA1F649F6627B00DA11D661F8C
:10104000829F2227B00DA11D621F739FB00DA11DAD
:10105000621F839FA00D611D221F749F3327A00D67
:10106000611D231F849F600D211D822F762F6A2F03
:1010700011249F5750408AF0E1F088234AF0EE0F88
:10108000FF1FBB1F661F771F881F91505040A9F795
:101090009E3F510570F060CFAACF5F3FECF3983EC2
:1010A000DCF3869577956795B795F795E7959F5FFC
:1010B000C1F7FE2B880F911D9695879597F9089596
:1010C000662777270C94DB08FC0188279927E8948A
:1010D00021912032E9F3293010F02E30C8F32B3261
:1010E00041F02D3239F4689404C00E94B908820F8F
:1010F000911D219120532A30C0F31EF490958195C3
:101100009F4F08954EE251E00E9487080895FA012A
:10111000A191B081009719F41097E1F0CD01DC01A5
:10112000CD010D90002011F4C00113C0FB012191ED
:10113000222319F02015D9F7F3CFFB0121912015B7
:1011400019F41E92119606C02223C1F70D900020BB
:10115000A1F7D001FA01A193B0830895BB274A30CB
:1011600031F4992322F4BDE2909581959F4F0C9420
:10117000C2087AE0979F902D879F802D910D1124B2
:101180000895BB27FB015527AA27880F991FAA1F7F
:10119000A41710F0A41B83955051B9F7A05DAA3392
:1011A00008F0A95DA193009779F7B111B19311925D
:1011B000CB010C945E0AA0E0B0E0E1EEF8E00C9404
:1011C000820A8B016115710521F0DB018C93119668
:1011D0009C93EC015E01BFEFAB1ABB0A7501C8809E
:1011E0008C2D90E00E943E0A892B11F0E501F2CF90
:1011F000EDE2CE1208C07E01F2E0EF0EF11CC980D4
:10120000DD24D39409C02BE2C21205C07E0142E066
:10121000E40EF11CC980D12CE701219743E050E096
:1012200060E770E0CE010E94460A892BC1F4239644
:1012300045E050E06BE670E0CE010E94460A892B43
:1012400009F425960115110519F0D801CD93DC9309
:10125000D11006C160E070E080E89FE70AC143E07A
:1012600050E068E670E0CE010E94460A892B59F4EE
:101270000115110509F4F9C0B2E0EB0EF11CF801FB
:10128000F182E082F2C0F70160E070E0CB01C0E0E3
:10129000D0E07F01A0EDAA2EAC0C29E02A1530F198
:1012A0004D2D4260B42E2D2D2870D2FE04C0211188
:1012B00025C0219623C021112197A5E0B0E09B0114
:1012C000AC010E94710A660F771F881F991F6A0D73
:1012D000711D811D911D6839A9E97A078A07A9E165
:1012E0009A0760F0BD2DB660BB2E08C02EEFA2128B
:1012F0000AC0D3FC50C04D2D4860B42E3196D701A2
:10130000CC90DB2CC6CF2C2D2F7D253409F043C08B
:10131000A081AD3241F4BD2DB061DB2E7F0122E012
:10132000E20EF11C0CC07F01AB3231F04FEFE41A3A
:10133000F40A21E030E006C0A2E0EA0EF11CA1812F
:1013400022E030E0A053AA3018F0E21AF30A23C0DA
:10135000F70120E030E02038BCE03B075CF4A90155
:10136000440F551F440F551F240F351F220F331FE5
:101370002A0F311DAF014F5F5F4F7A01A081A0534B
:10138000AA3010F4FA01E7CFD4FE03C031952195BD
:101390003109C20FD31FD1FE09C00115110531F06B
:1013A000E1E0EE1AF108D801ED92FC920E944B07A1
:1013B0002D2D2370233019F04B015C0106C04B0129
:1013C0005C01B7FAB094B7F8B09420E030E0A9011E
:1013D000C501B4010E94AE06882309F43EC0D7FFC0
:1013E00006C0D195C195D10907E810E002C00FE908
:1013F00010E06801B8E1CB1AD10890E2E92EF12C97
:10140000CE15DF0574F0F801259135914591549181
:10141000C501B4010E94FD074B015C01CE19DF0933
:10142000EFCF04501109F594E7940C151D0541F711
:101430008A2D880F8B2D881F8F3F49F020E030E0E8
:10144000A901C501B4010E94AE06811106C082E265
:1014500090E09093720180937101C501B40109C0BD
:1014600060E070E080E89FEF04C060E070E080EC36
:101470009FE7CDB7DEB7ECE00C949E0A91112EC029
:10148000803219F089508550D0F70895FB01DC01B6
:101490004150504088F08D9181341CF08B350CF414
:1014A000805E659161341CF06B350CF4605E861BC8
:1014B000611171F3990B0895881BFCCFDC01FC01CD
:1014C000672F71917723E1F7329704C07C916D9378
:1014D00070836291AE17BF07C8F3089599278827D4
:1014E00008950E94B30AA59F900DB49F900DA49FEC
:1014F000800D911D112408952F923F924F925F927B
:101500006F927F928F929F92AF92BF92CF92DF9213
:10151000EF92FF920F931F93CF93DF93CDB7DEB778
:10152000CA1BDB0B0FB6F894DEBF0FBECDBF09940C
:101530002A88398848885F846E847D848C849B8463
:10154000AA84B984C884DF80EE80FD800C811B8171
:10155000AA81B981CE0FD11D0FB6F894DEBF0FBEA0
:10156000CDBFED010895A29FB001B39FC001A39F1D
:10157000700D811D1124911DB29F700D811D1124CC
:08158000911D0895F894FFCFBE
:101588002C004D79204C617469747564653A2000AB
:101598004D79204C6F6E6769747564653A20000D4B
:0E15A80073657420746F2069646C650A0D0011
:00000001FF
