:100000000C9475000C9446040C948C040C9492008F
:100010000C9492000C9492000C9492000C94920018
:100020000C9492000C9492000C9492000C94920008
:100030000C9492000C9492000C9492000C949200F8
:100040000C9492000C9492000C9492000C949200E8
:100050000C9492000C9492000C9492000C949200D8
:100060000C9492000C949200072C7AA5BA6CC5905F
:10007000DA3B9365FC8BBC53F810FD3C5692834DE4
:10008000BD879D3AB63DCBC9BF5BBE73DA0FC93F92
:1000900005A84CCDB2D44EB93836A9020C50B9914E
:1000A0008688083CA6AAAA2ABE000000803F4E41CE
:1000B0004E494E495459494E46CDCCCC3D0AD723E2
:1000C0003C17B7D13877CC2B329595E6241FB14F2A
:1000D0000A000020410000C84200401C4620BCBE6F
:1000E0004CCA1B0E5AAEC59D740011241FBECFEF23
:1000F000D8E0DEBFCDBF12E0A0E0B1E0E6E7FDE270
:1001000002C005900D92A03CB107D9F723E0A0EC06
:10011000B2E001C01D92A930B207E1F70E941F0CA6
:100120000C94B9160C94000090E09093C500809355
:10013000C400E1ECF0E080818860808386E08093F9
:10014000C20008958091C00087FFFCCF8091C60057
:1001500008959091C00095FFFCCF8093C60008954C
:10016000CF93DF93EC018991882319F00E94A900B5
:10017000FACFDF91CF9108958EEF0E94A90081E41C
:100180000E94A9008FEF9FE50197F1F700C00000E2
:100190008EEF0E94A90081E50E94A9008FEF9FE5E4
:1001A0000197F1F700C0000008958EEF0E94A900AA
:1001B00081E50E94A9008FEF9FE50197F1F700C04C
:1001C000000008951F93CF93DF93182FEB018EEF5C
:1001D0000E94A90085E40E94A900812F0E94A90025
:1001E000CE01DF91CF911F910C94B00090E09093DD
:1001F000C5008093C400E1ECF0E0808188618083D9
:1002000086E08093C20008958091C00087FFFCCFF4
:100210008091C60008959091C00095FFFCCF809317
:10022000C60008951F93CF93DF93EC0110E0812F58
:10023000992787FD9095FE0101900020E9F73197FD
:10024000EC1BFD0B8E179F0740F4FE01E80FF91F12
:1002500080810E940B011F5FEACF8DE00E940B019D
:100260008AE0DF91CF911F910C940B014F925F9226
:100270006F927F928F929F92AF92BF92CF92DF92B6
:10028000EF92FF920F931F93CF93DF93CDB7DEB71B
:10029000A3970FB6F894DEBF0FBECDBF8C0160ED03
:1002A00071E00E94D411E0E00097A9F0FF24F394DC
:1002B000FE0EEE0FFF0B21E030E02C0F3D1FE20F92
:1002C000F31F9183808360ED71E080E090E00E94F5
:1002D000D411EF2DE9CF8B859C850E94B611780152
:1002E00035E6E30EF11CF701918380838D859E85B1
:1002F0000E94B611F801E959FF4F918380838989E3
:100300009A890E94B211F801EF58FF4F6083718300
:1003100082839383F70180819181892B09F46EC0D8
:1003200019A21AA21BA2CB80DC80F601808189A3CE
:1003300081818AA3CE0181960E94B6117C01C601FB
:1003400002960E94B2112B013C015801F9E6AF0E52
:10035000B11CB701882777FD8095982F0E94B80FB0
:100360006B017C0120E030E040E752E4C301B201C0
:100370000E941D0F9B01AC01C701B6010E94B20E85
:10038000F50160837183828393831D8E1E8E1F8E81
:1003900018A2CF80D884F60180818D8F81818E8FC5
:1003A00082818F8FCE014D960E94B6117C01C601CD
:1003B00003960E94B2114B015C0103591F4FB70114
:1003C000882777FD8095982F0E94B80F6B017C01DC
:1003D00020E030E040E752E4C501B4010E941D0F67
:1003E0009B01AC01C701B6010E94B20EDC01CB013A
:1003F000B058F80180839183A283B383A3960FB68C
:10040000F894DEBF0FBECDBFDF91CF911F910F914A
:10041000FF90EF90DF90CF90BF90AF909F908F9024
:100420007F906F905F904F900895EF92FF920F939F
:100430001F93CF93DF937C01C0E0D0E08C010C5977
:100440001F4F0E940401209711F48432B9F18734C0
:1004500021F4C130D10539F434C0803559F4C230AB
:10046000D10581F431C0C330D10589F1C430D10543
:1004700049F430C0813431F4C530D10519F4C6E0F7
:10048000D0E0DFCFC630D10541F5F801908121E001
:10049000290F2083F701E90FF11D97FDFA9580835D
:1004A0008D3079F6C7010E943601F8011082DF9184
:1004B000CF911F910F91FF90EF900895C1E0D0E090
:1004C000C0CFC2E0D0E0BDCFC3E0D0E0BACFC4E03F
:1004D000D0E0B7CFC5E0D0E0B4CFC0E0D0E0B1CF3E
:1004E0003F924F925F926F927F928F929F92AF92C4
:1004F000BF92CF92DF92EF92FF920F931F93CF9311
:10050000DF932B013C01EA01B22E0E94850F6B01A3
:100510007C018B014AE0BE01C6010E940B1220E063
:1005200030E0A901C301B2010E94160F87FF08C085
:1005300077FA709477F87094002711270C191D0929
:10054000FE0101900020E9F73197EC1BFD0B3324ED
:1005500033943E0E8E2E992487FC9094FE01E80D74
:10056000F91D8EE28083E12CF12C8B0C911CB7FCE1
:100570009A94C32CCE0CDD24C7FCD094BFEFEB1AA9
:10058000FB0A8C149D043CF1B801882777FD809507
:10059000982F0E94B80F9B01AC01C301B2010E94C9
:1005A000B10E20E030E040E251E40E94E1102B0166
:1005B0003C010E94850FDC01CB018C014AE0A12C9B
:1005C000B12CB5010E940B12FE01EC0DFD1DD501F1
:1005D0008C918083CECFDF91CF911F910F91FF90AF
:1005E000EF90DF90CF90BF90AF909F908F907F90D3
:1005F0006F905F904F903F9008950F931F93CF930C
:10060000DF93EC018B01FC01E759FF4F60817181A1
:100610008281938123E0A8010E9470026BE072E066
:1006200080E00E94E200B8018AE00E94E200FE0140
:10063000E359FF4F608171818281938123E0A8019A
:100640000E9470026EE172E080E40E94E200B80154
:100650008BE40E94E20062ED71E084E10E94E2001E
:10066000C959DF4F89818F9388818F9389E692E002
:100670009F938F931F930F930E943812B80180E2CB
:100680000E94E2000F900F900F900F900F900F902C
:100690006EEB72E087E6DF91CF911F910F910C9482
:1006A000E2004F925F926F927F928F929F92AF92F1
:1006B000BF92CF92DF92EF92FF920F931F93CF934F
:1006C000DF93CDB7DEB764970FB6F894DEBF0FBEE9
:1006D000CDBF2D833E834F8358872BED3FE049E408
:1006E00050E40E94E11020E030E044E353E40E9433
:1006F0001D0F69837A838B839C830E9444116987D1
:100700007A878B879C872BED3FE049E450E4C80152
:10071000B7010E94E11020E030E044E353E40E947E
:100720001D0F2B013C010E9444116D877E878F872E
:10073000988B69817A818B819C810E941A0F6983D1
:100740007A838B839C83C301B2010E941A0F698B49
:100750007A8B8B8B9C8BA60195016D817E818F811D
:1007600098850E94B10E2BED3FE049E450E40E94D1
:10077000E11020E030E044E353E40E941D0F0E94AA
:100780001A0F6D837E838F8398872D853E854F85D5
:10079000588969857A858B859C850E94E1104B017B
:1007A0005C0129893A894B895C8969817A818B81CD
:1007B0009C810E94E1102D813E814F8158850E94CD
:1007C000E1109B01AC01C501B4010E94B20E0E9470
:1007D000A30E20E030E044E353E40E94E1102BED4F
:1007E0003FE049E450E40E941D0F20E030E040E784
:1007F00052E40E94E1102AE534E643E95FE30E94F7
:10080000E11064960FB6F894DEBF0FBECDBFDF9146
:10081000CF911F910F91FF90EF90DF90CF90BF90FD
:10082000AF909F908F907F906F905F904F900895C2
:100830002BED3FE049E450E40E94E11020E030E07D
:1008400044E353E40E941D0F089520E030E044E3A8
:1008500053E40E94E1102BED3FE049E450E40E9494
:100860001D0F0895529853985A9A5B9AE9E6F0E062
:1008700080818B6080838DB383608DBBF894789486
:10088000EBE6F0E080818068808308951F920F92EC
:100890000FB60F9211242F933F934F935F936F9353
:1008A0007F938F939F93AF93BF93EF93FF9387ECC7
:1008B00092E09F938F938DB79EB7815491090FB6A5
:1008C000F8949EBF0FBE8DBFADB7BEB7119681E441
:1008D000E6ECF2E001900D928A95E1F70E94430761
:1008E000809305038DB79EB78D5B9F4F0FB6F8942D
:1008F0009EBF0FBE8DBFFF91EF91BF91AF919F91B2
:100900008F917F916F915F914F913F912F910F90B8
:100910000FBE0F901F9018951F920F920FB60F9257
:1009200011240F931F932F933F934F935F936F93D4
:100930007F938F939F93AF93BF93EF93FF93CF9347
:10094000DF93CDB7DEB76E97DEBFCDBF80910001DC
:1009500090910101019690930101809300019F9372
:100960008F9381E692E09F938F938E010F5F1F4FCD
:100970001F930F930E9438120F900F900F900F90BB
:100980000F900F908091C4029091C502049721F4BA
:10099000B80180E40E94E2002FEF8FE791E0215040
:1009A00080409040E1F700C000C06E960FB6F8940A
:1009B000DEBF0FBECDBFDF91CF91FF91EF91BF9111
:1009C000AF919F918F917F916F915F914F913F91E7
:1009D0002F911F910F910F900FBE0F901F901895A0
:1009E000FC0120812EBD615071096115710531F046
:1009F000FC0121810DB407FEFDCFF4CF0DB407FE3D
:100A0000FDCF0895F89484B18C6084B981E58CBDE4
:100A10007894089584B18C6284B924982A9A8CB50C
:100A2000837D8CBD8DB581608DBD8CB580618CBDA5
:100A30008CB580648CBD08958EBD0DB407FEFDCFCE
:100A40008EB50895FC0161157105B1F080818EBDF0
:100A5000615071096115710551F081810DB407FE76
:100A6000FDCF9EB58EBD8081890F8083F1CF0DB4FF
:100A700007FEFDCF8EB5808308956115710511F0D5
:100A80000C94F00408952A9808952A9A08958EBD2A
:100A90000DB407FEFDCF089580E184B980E48CBDDC
:100AA00008950DB407FEFDCF8EB508950E940A0586
:100AB000F8948CB5837F8CBD8CB58F7D8CBD8CB547
:100AC0008C7F8CBD8DB58E7F8DBD78940895CF932E
:100AD000DF9300D000D0CDB7DEB7F8946C838B8362
:100AE0000E9443058B81806889836C816A8362E000
:100AF00070E0CE0101960E94F0040E9445057894B2
:100B00000F900F900F900F90DF91CF910895F89470
:100B1000219A2A988F770E941C0580E00E941C056C
:100B20002A9A78940895CF93DF93EC0168818FE23D
:100B30000E946705698180E3DF91CF910C9467057E
:100B4000CF93C82F692F8CE20E9467056C2F8DE22E
:100B5000CF910C946705CF92DF92EF92FF9220E045
:100B600034E244E759E40E94E11020E034E244E733
:100B700052E40E941D0F0E948A0F6B017C01B70195
:100B80008827992787E00E94670599278F2D7E2D5A
:100B90006D2D88E00E9467056C2D89E0FF90EF9035
:100BA000DF90CF900C946705CF93DF9300D0CDB743
:100BB000DEB7389A419A2FEF8FEF92E021508040B4
:100BC0009040E1F700C000C041982FEF8FEF92E016
:100BD000215080409040E1F700C000C06FE88CE3F6
:100BE0000E94670560E38FE60E94670565E58AE578
:100BF0000E94670560E78CE50E9467058DE78983A1
:100C00008DE88A83CE0101960E94930584E090E0EE
:100C10000E94A00560E070E089ED93E40E94AB05BE
:100C20000F900F90DF91CF910895CF93C82F81E05F
:100C30000E948705682F637ECC716C2B81E0CF9179
:100C40000C946705CF93C82F80320CF0CFE181E17F
:100C50000E948705807E6C2FC7FD6F5F6595682BAE
:100C600081E1CF910C946705CF93C82F882311F0B1
:100C70006FE001C06AE183E10E94670581E1CC2356
:100C800031F00E948705682F6F71606604C00E9472
:100C90008705682F6F7181E1CF910C9467051F93D1
:100CA000CF93DF93EC01162F88818617C9F161116C
:100CB0000FC0188265E58AE50E94670560E78CE54C
:100CC0000E94670584E0DF91CF911F910C94150677
:100CD000613089F465E58AE50E94670560E78CE587
:100CE0000E94670580E10E94150660E485E20E948B
:100CF000670580E012C0623099F46DE58AE50E94D4
:100D000067056CE78CE50E9467058CE00E9415067C
:100D100060E085E20E94670581E00E943406188346
:100D2000DF91CF911F910895CF92DF92EF92FF92C2
:100D30000F931F93CF93DF93EC01CB01F89460E006
:100D40000E944F06229A2A9880E00E941C0580E0AB
:100D50000E941C05D82E8823A1F0C12CE82EFF2468
:100D6000E7FCF0942C2D30E02E153F0554F48E0155
:100D7000020F131F80E00E941C05F8018083C394BA
:100D8000F1CF2A9A78948D2DDF91CF911F910F91F9
:100D9000FF90EF90DF90CF9008950F931F93CF9324
:100DA000DF93EC018FAD882379F01FAE8E010F5FCA
:100DB0001F4FB801CE0102960E9494068EAF61E0EB
:100DC000C8010E944F0681E0DF91CF911F910F91E2
:100DD00008959F92AF92BF92CF92DF92EF92FF92CF
:100DE0000F931F93CF93DF9300D0CDB7DEB76C0185
:100DF0008B01A42E8CE38417C4F1F89460E0C80141
:100E00000E944F0687E20E94870587FFFBCF229A48
:100E10002A9880E88983AA8262E070E0CE01019678
:100E20000E94F004912CBB24A7FCB094E92CF12C77
:100E3000EA14FB047CF4EC0CFD1CF70180810E9499
:100E40001C05F7018081992787FD90950E94A900D4
:100E50009394ECCF2A9A789462E0C8010E944F06DE
:100E600088E20E94870583FFFBCF0F900F90DF91F0
:100E7000CF911F910F91FF90EF90DF90CF90BF9097
:100E8000AF909F9008951F93CF93DF9300D0CDB77D
:100E9000DEB72B968EAD9FAD2B979A838983FC018D
:100EA0001081113039F0E981FA811081113041F05F
:100EB00010E00FC088E20E94870582FFF4CF09C0CE
:100EC00080EB92E00E94B00060E0CE0109960E94A3
:100ED0004F06812F0F900F90DF91CF911F910895B2
:100EE00061E083E20E94670583E20E94870581FF3B
:100EF000FBCF84E20E948705992781950CF4909599
:100F00009595879508956F927F928F929F92AF9259
:100F1000BF92CF92DF92EF92FF920F931F93CF93E6
:100F2000DF93CDB7DEB72C970FB6F894DEBF0FBEB8
:100F3000CDBF3C014B015A01F89486E0EAECF1E0A8
:100F4000DE01119601900D928A95E1F786E0C82E98
:100F5000D12CCE0107967C0100E010E020E030E0CB
:100F600046E050E0BE016F5F7F4F86ED0E949B0818
:100F7000688570E0EA84F12C0C8510E0762F6627F6
:100F8000FE2CEE248985E82A102F00278B85082B5C
:100F90008F81682B882777FD8095982F0E94B80F46
:100FA000F3016083718382839383B701882777FD80
:100FB0008095982F0E94B80FF4016083718382831B
:100FC0009383B801882777FD8095982F0E94B80FEA
:100FD000F501608371838283938378942C960FB696
:100FE000F894DEBF0FBECDBFDF91CF911F910F915F
:100FF000FF90EF90DF90CF90BF90AF909F908F9039
:101000007F906F900895CF93DF9300D0CDB7DEB778
:101010004A8369830E9450086981862F0E94720862
:101020004A81842F0E9472080F900F90DF91CF9118
:101030000C9483080E944A0845E062E286ED0E9413
:1010400003088FEF9FE50197F1F700C0000048E328
:101050006FE186ED0E94030840EC60E286ED0E949D
:1010600003084AE066E086ED0E94030840E46CE075
:1010700086ED0E9403084FE067E086ED0E940308BA
:101080004FE068E086ED0E94030842EB6AE086EDDF
:101090000C9403088AE28093B8001092B900089576
:1010A0001092BC0094EA9093BC009091BC0097FF12
:1010B000FCCF9091B900987F983011F081E00895AD
:1010C0008093BB0084E88093BC008091BC0087FFC4
:1010D000FCCF8091B900887F883111F0803471F79E
:1010E00080E008958093BB0084E88093BC008091E9
:1010F000BC0087FFFCCF9091B900987F81E09832C7
:1011000009F480E0089584E98093BC00089584EC9C
:101110008093BC008091BC0087FFFCCF8091BB0016
:10112000089584E88093BC008091BC0087FFFCCFC9
:101130008091BB000895CF92DF92EF92FF920F93C0
:101140001F934115510521F40115110509F4A0C0A3
:1011500094EA9093BC009091BC0097FFFCCF9091D3
:10116000B900987F983009F068C0982F9E7F9093BF
:10117000BB0094E89093BC009091BC0097FFFCCF1B
:101180009091B900987F983121F0903209F055C0C4
:1011900051C0FB01460F571F64E8E417F50791F0B3
:1011A00091919093BB006093BC009091BC0097FF1D
:1011B000FCCF9091B900987F983279F39033E9F59C
:1011C00090E338C0F901020F131F24E8E017F1077C
:1011D00079F091919093BB002093BC009091BC005A
:1011E00097FFFCCF9091B900987F983279F3E6CFC2
:1011F000C114D10409F44AC020E194EA9093BC00E0
:101200009091BC0097FFFCCF9091B900987F92130A
:1012100014C081608093BB0084E88093BC008091FF
:10122000BC0087FFFCCF9091B900987F903439F0D3
:10123000983419F484E98093BC00892F2FC0F701FA
:1012400084EC91E0C916D10491F08093BC00909198
:10125000BC0097FFFCCF9091B900987F21E0C21AA3
:10126000D108903551F79091BB009193EACF84E873
:101270008093BC008091BC0087FFFCCF9091B900A7
:10128000987F9835D1F68091BB00808390E0D2CFD3
:10129000C114D10411F028E0B0CF80E01F910F916C
:1012A000FF90EF90DF90CF9008953F924F925F9222
:1012B0006F927F928F929F92AF92BF92CF92DF9266
:1012C000EF92FF920F931F93CF93DF93EC012A01CC
:1012D0003B01B22ECB01BA010E94850F6B017C014C
:1012E0008B014AE050E0BE01C6010E94001220E0DE
:1012F00030E0A901C301B2010E94160F87FF08C0A8
:1013000077FA709477F87094002711270C191D094B
:10131000FE0101900020E9F73197EC1BFD0B33240F
:1013200033943E0E8E2E992487FC9094FE01E80D96
:10133000F91D8EE28083E12CF12C8B0C911CB7FC03
:101340009A94C32CCE0CDD24C7FCD094BFEFEB1ACB
:10135000FB0A8C149D0444F1B801882777FD809521
:10136000982F0E94B80F9B01AC01C301B2010E94EB
:10137000B10E20E030E040E251E40E94E1102B0188
:101380003C010E94850FDC01CB018C014AE050E05A
:10139000A12CB12CB5010E940012FE01EC0DFD1D27
:1013A000D5018C918083CDCFDF91CF911F910F918B
:1013B000FF90EF90DF90CF90BF90AF909F908F9075
:1013C0007F906F905F904F903F900895CF93DF9301
:1013D00000D0CDB7DEB74A8369830E945008698187
:1013E000862F0E9472084A81842F0E9472080F90F3
:1013F0000F90DF91CF910C9483080E944A0848EB2C
:1014000066E280EC0E94E60947E063E180EC0C9420
:10141000E609CF92DF92EF92FF920F931F9368013C
:10142000790100E010E020E030E00E949B081F916D
:101430000F91FF90EF90DF90CF9008950F931F933F
:10144000CF93DF93CDB7DEB728970FB6F894DEBF02
:101450000FBECDBF48EB66E280EC0E94E60947E094
:1014600063E180EC0E94E60949E366E280EC0E94B9
:10147000E6091F82888583FD14C001E010E09E010B
:10148000285F3F4F41E050E0BE01695F7F4F80EC35
:101490000E94090A8FEF9FE50197F1F700C0000055
:1014A000E9CF81E08D8301E010E09E012A5F3F4F8C
:1014B00041E050E0BE016B5F7F4F80EC0E94090A63
:1014C00082E08B839E012C5F3F4F41E050E0BE01E4
:1014D0006D5F7F4F80EC0E94090A83E089839E0143
:1014E0002E5F3F4F41E050E0BE016F5F7F4F80ECC9
:1014F0000E94090A6E81862F90E0A0E0B0E0BA2F2A
:10150000A92F982F88272C81822B6627782F892F47
:101510009A2F2A81622B44E0969587957795679557
:101520004A95D1F70E94B60F20E030E040E85EE334
:101530000E94E11028960FB6F894DEBF0FBECDBF13
:10154000DF91CF911F910F9108950F931F93CF9328
:10155000DF93CDB7DEB728970FB6F894DEBF0FBE86
:10156000CDBF49EB66E280EC0E94E6091F828885C8
:1015700083FD14C001E010E09E01285F3F4F41E071
:1015800050E0BE01695F7F4F80EC0E94090A8FEF37
:101590009FE50197F1F700C00000E9CF81E08D835E
:1015A00001E010E09E012A5F3F4F41E050E0BE01A4
:1015B0006B5F7F4F80EC0E94090A82E08B839E0163
:1015C0002C5F3F4F41E050E0BE016D5F7F4F80ECEC
:1015D0000E94090A83E089839E012E5F3F4F41E00C
:1015E00050E0BE016F5F7F4F80EC0E94090A6E8160
:1015F000862F90E0A0E0B0E0BA2FA92F982F88277F
:101600002C81822B6627782F892F9A2F2A81622B93
:10161000E4E09595879577956795EA95D1F783FFEF
:1016200002C0806F9F6F0E94B80F20E030E040E85A
:101630005DE30E94E11020E030E048E052E40E94C7
:10164000B10E28960FB6F894DEBF0FBECDBFDF9166
:10165000CF911F910F9108950F931F93CF93DF9315
:1016600000D000D000D0CDB7DEB749EB66E280EC09
:101670000E94E6091D828E8183FD14C001E010E006
:101680009E012A5F3F4F41E050E0BE016B5F7F4FFC
:1016900080EC0E94090A8FEF9FE50197F1F700C0E7
:1016A0000000E9CF84E08B8301E010E09E012C5F15
:1016B0003F4F41E050E0BE016D5F7F4F80EC0E94E4
:1016C000090A85E089839E012E5F3F4F41E050E08B
:1016D000BE016F5F7F4F80EC0E94090A6C8170E051
:1016E000762F66278A81682BA4E075956795AA9561
:1016F000E1F7882777FD8095982F0E94B80F20E0AA
:1017000030E040E85DE30E94E11026960FB6F894C1
:10171000DEBF0FBECDBFDF91CF911F910F91089516
:101720003F924F925F926F927F928F929F92AF9271
:10173000BF92CF92DF92EF92FF920F931F93CF93BE
:10174000DF93EC012A013B01B22ECB01BA010E94CA
:10175000850F6B017C018B014AE0BE01C6010E942E
:101760000B1220E030E0A901C301B2010E94160F64
:1017700087FF08C077FA709477F8709400271127D4
:101780000C191D09FE0101900020E9F73197EC1BAF
:10179000FD0B332433943E0E8E2E992487FC9094B7
:1017A000FE01E80DF91D8EE28083E12CF12C8B0CFB
:1017B000911CB7FC9A94C32CCE0CDD24C7FCD094AA
:1017C000BFEFEB1AFB0A8C149D043CF1B80188278B
:1017D00077FD8095982F0E94B80F9B01AC01C30143
:1017E000B2010E94B10E20E030E040E251E40E94DC
:1017F000E1102B013C010E94850FDC01CB018C0123
:101800004AE0A12CB12CB5010E940B12FE01EC0D97
:10181000FD1DD5018C918083CECFDF91CF911F919B
:101820000F91FF90EF90DF90CF90BF90AF909F907F
:101830008F907F906F905F904F903F900895CF93DF
:10184000DF93CDB7DEB7C752D2400FB6F894DEBFF4
:101850000FBECDBF0E94BC008EEF0E94A9000E9467
:1018600032048FE20E94F6000E9402050E941A08CC
:101870005598569857982098A6961FAEA69780E13F
:101880008093C6021092C7021092040310920603BE
:10189000399A41982FEF8FEF92E02150804090408D
:1018A000E1F700C000C0419AEFEFFFEF22E0E15006
:1018B000F0402040E1F700C000C00E9456050E94A1
:1018C000D40561E087EC92E00E944F060E94FD097A
:1018D0008FEF9FEFE2E081509040E040E1F700C0E1
:1018E00000C085E090E09093C5028093C4020E94FE
:1018F000D5000E94D500FFEF2FEF8EE0F150204081
:101900008040E1F700C000006FED71E080E00E94D0
:10191000E20067EE71E080E40E94E20063EF71E0B4
:1019200084E10E94E20090E0E0E0FAE59150E040BE
:10193000F040E1F70E94D5004E0126E7820E911C8F
:101940002E018AED480E511C3E019EE5691A9EEF5C
:10195000790A1E01EAEF2E1AEDEF3E0AC20108963F
:10196000CC5DDD4F99838883C452D240F4013A960E
:10197000CA5DDD4FF983E883C652D240FFEF2FEFF7
:101980008EE0F15020408040E1F700C000000E944E
:10199000A2000E94A900CE0101960E9415024D9955
:1019A00003C081E090E004C04E9907C082E090E05F
:1019B0009093C5028093C4020DC04F9903C083E089
:1019C00090E0F6CF189906C0E4E0F0E0F093C5028D
:1019D000E093C4028091C4029091C50281309105C8
:1019E00009F09FC00E94D50080910503882309F467
:1019F00090C0FFEF2FEF8EE0F15020408040E1F7E4
:101A000000C0000088E0E2E0F1E0D20101900D9218
:101A10008A95E1F78CE5CC5DDD4FE881F981C45210
:101A2000D24011928A95E9F78AE0E6E6F1E0D40126
:101A300001900D928A95E1F78AE5CA5DDD4FE88154
:101A4000F981C652D24011928A95E9F710920503A6
:101A500067EC72E088EC92E00E94940680930403A5
:101A600061E087EC92E00E944F0662E072E080E065
:101A70000E94E200B20180E40E94E20065E172E0AF
:101A800084E10E94E200B40184E50E94E200E29653
:101A90002CAD3DAD4EAD5FADE297AE966CAD7DAD7C
:101AA0008EAD9FADAE97E5E0AE2EE4E9BE2EE2EF3F
:101AB000CE2EE2ECDE2E14EEE12E14E1F12E08E043
:101AC00012E40E945103AB01BC0122E0C1010E945B
:101AD0005509F0E020E08AE5F15020408040E1F730
:101AE0000E94D5009FEFEFEFF2E09150E040F04010
:101AF000E1F700C000C0B10180E00E94E20069E2AD
:101B000072E089E00E94E2006EEB72E087E60E94DC
:101B1000E2002FEF8FEF9DE1215080409040E1F7F0
:101B2000D9C08230910509F06DC00E94D500F894AB
:101B3000FE01E25CFE4F1192E615F705E1F70E9407
:101B40001E0A20E030E143E555E40E941D0FAB0181
:101B5000BC0122E030E0CE01825C9E4F0E94900BDF
:101B60006FE272E080E00E94E200BE01625C7E4FA4
:101B70008EE00E94E200FE01E25CFE4F1192E6154B
:101B8000F705E1F70E94A50AAB01BC0122E030E0B5
:101B9000CE01825C9E4F0E94900B6EE372E080E467
:101BA0000E94E200BE01625C7E4F8DE40E94E20072
:101BB000FE01E25CFE4F1192E615F705E1F70E9487
:101BC0002C0BAB01BC0122E030E0CE01825C9E4FC9
:101BD0000E94900B6CE472E084E10E94E200BE017E
:101BE000625C7E4F8DE10E94E2006EEB72E087E660
:101BF0000E94E200EFEFFFEF2DE1E150F0402040C6
:101C0000E1F717C083309105C1F40E94D500F89424
:101C1000F3011192E215F305E1F7B301CE0101964C
:101C20000E94FD028FEF9FEFEDE181509040E04078
:101C3000E1F700C0000078947CC08430910509F081
:101C40004CC00E94D5002091C0023091C102809109
:101C50000001909101012817390774F46AE572E0D8
:101C600080E00E94E2008091000190910101909338
:101C7000C1028093C00205C066E572E080E00E9468
:101C8000E200809101018F93809100018F9381E6A2
:101C900092E09F938F939F928F920E943812B4018B
:101CA00080E40E94E2006EEB72E087E60E94E200B0
:101CB000F4010F900F900F900F900F900F901192D2
:101CC000E415F505E1F7FFEF2FEF8EE0F15020402E
:101CD0008040E1F700C000002CC0059729F56CE6B4
:101CE00072E080E00E94E20060E872E080E40E941E
:101CF000E20069E872E084E10E94E2006CE972E0CF
:101D000084E50E94E2006EEB72E087E60E94E2004A
:101D100090E0E0E0FAE59150E040F040E1F7109209
:101D2000C5021092C40205C06EEB72E087E60E9405
:101D3000E2002FEF8FEF92E0215080409040E1F7DA
:101D400000C000C01BCE9F939F774DD10F90002005
:101D50003AF49058A2EA2AED3FE049E450E413D067
:101D6000E5C15058BB27AA270ED0E0C1A9D130F059
:101D7000AED120F031F49F3F11F41EF479C10EF47E
:101D8000E095E7FB6FC1E92FF3D180F3BA17620743
:101D900073078407950718F071F49EF50BC20EF4D3
:101DA000E0950B2EBA2FA02D0B01B90190010C016B
:101DB000CA01A0011124FF27591B99F0593F50F483
:101DC000503E68F11A16F040A22F232F342F4427DB
:101DD000585FF3CF469537952795A795F0405395D3
:101DE000C9F77EF41F16BA0B620B730B840BBAF0A3
:101DF0009150A1F0FF0FBB1F661F771F881FC2F70E
:101E00000EC0BA0F621F731F841F48F48795779521
:101E10006795B795F7959E3F08F0B3CF9395880FD8
:101E200008F09927EE0F979587950895F7D008F455
:101E300081E0089554D1E3958AC10CD077C147D190
:101E400040F03ED130F021F45F3F19F00BC1511149
:101E5000B2C10EC18DD198F39923C9F35523B1F3C3
:101E6000951B550BBB27AA2762177307840738F009
:101E70009F5F5F4F220F331F441FAA1FA9F333D068
:101E80000E2E3AF0E0E830D091505040E695001C1C
:101E9000CAF729D0FE2F27D0660F771F881FBB1FD8
:101EA000261737074807AB07B0E809F0BB0B802DB2
:101EB000BF01FF2793585F4F2AF09E3F510568F0FE
:101EC000D1C079C15F3FECF3983EDCF386957795FE
:101ED0006795B795F7959F5FC9F7880F911D969500
:101EE000879597F90895E1E0660F771F881FBB1F5C
:101EF000621773078407BA0720F0621B730B840B09
:101F0000BA0BEE1F88F7E095089504D06894B111DC
:101F100052C1089535D188F09F5790F0B92F992775
:101F2000B751A0F0D1F0660F771F881F991F1AF0E4
:101F3000BA95C9F712C0B13081F03CD1B1E0089533
:101F400039C1672F782F8827B85F39F0B93FCCF3B4
:101F5000869577956795B395D9F73EF490958095DA
:101F6000709561957F4F8F4F9F4F0895E89409C0FA
:101F700097FB3EF490958095709561957F4F8F4FBC
:101F80009F4F9923A9F0F92F96E9BB279395F695D2
:101F9000879577956795B795F111F8CFFAF4BB0F50
:101FA00011F460FF1BC06F5F7F4F8F4F9F4F16C0B4
:101FB000882311F096E911C0772321F09EE8872F3E
:101FC000762F05C0662371F096E8862F70E060E0FA
:101FD0002AF09A95660F771F881FDAF7880F969573
:101FE000879597F90895DF93CF931F930F938B01F4
:101FF000EC01E8E6F0E03FD099D09801AE018B010A
:10200000EC0160E070E080E89FE3ABDE47D198012F
:10201000AE010F911F91CF91DF91DFC0990F0008A2
:10202000550FAA0BE0E8FEEF16161706E807F907AA
:10203000C0F012161306E407F50798F0621B730B45
:10204000840B950B39F40A2661F0232B242B252BC6
:1020500021F408950A2609F4A140A6958FEF811D69
:10206000811D089597F99F6780E870E060E008950A
:102070009FEF80EC0895DF93CF931F930F93FF9210
:10208000EF92DF927B018C01689405C0DA2EEF019C
:10209000A4D0FE01E894A5912591359145915591E3
:1020A000AEF3EF0170DEFE019701A801DA9479F733
:1020B000DF90EF90FF900F911F91CF91DF910895E6
:1020C00000240A9416161706180609060895002417
:1020D0000A9412161306140605060895C9CF50D0A7
:1020E000E8F3E894E0E0BB279F57F0F02AED3FE0EB
:1020F00049EC06C0EE0FBB0F661F771F881F28F044
:10210000B23A62077307840728F0B25A620B730B66
:10211000840BE3959A9572F7803830F49A95BB0F4B
:10212000661F771F881FD2F79048F8C0092E0394C6
:10213000000C11F4882352F0BB0F40F4BF2B11F4B4
:1021400060FF04C06F5F7F4F8F4F9F4F0895EF93E5
:10215000E0FF06C0A2EA2AED3FE049EC5FEB13DEA8
:10216000E5DF0F90039401FC9058E0E9F0E0E9C04E
:1021700057FD9058440F551F59F05F3F71F0479538
:10218000880F97FB991F61F09F3F79F0879508951D
:10219000121613061406551FF2CF4695F1DF08C03C
:1021A000161617061806991FF1CF86957105610559
:1021B00008940895E894BB2766277727CB0197F901
:1021C00008950BD0B3CF7CDF28F081DF18F0952382
:1021D00009F048CF4DCF1124EECFCADFA0F3959F71
:1021E000D1F3950F50E0551F629FF001729FBB27FE
:1021F000F00DB11D639FAA27F00DB11DAA1F649FAA
:102200006627B00DA11D661F829F2227B00DA11D5C
:10221000621F739FB00DA11D621F839FA00D611DE2
:10222000221F749F3327A00D611D231F849F600D03
:10223000211D822F762F6A2F11249F5750408AF03C
:10224000E1F088234AF0EE0FFF1FBB1F661F771FC8
:10225000881F91505040A9F79E3F510570F002CF62
:10226000AACF5F3FECF3983EDCF3869577956795B0
:10227000B795F795E7959F5FC1F7FE2B880F911DE6
:102280009695879597F908959F9329DF0F9007FCFE
:10229000EE5F5DCF11F40EF4EBCE3EC071DFD0F3F4
:1022A0009923D9F3CEF39F57550B87FF43D00024D2
:1022B000A0E640EA900180585695979528F4805CF6
:1022C000660F771F881F20F026173707480730F45E
:1022D000621B730B840B202931294A2BA695179476
:1022E0000794202531254A2758F7660F771F881F46
:1022F00020F026173707480730F4620B730B840B66
:10230000200D311D411DA09581F7B901842F9158F1
:10231000880F9695879508959F3F31F0915020F44E
:10232000879577956795B795880F911D96958795B1
:1023300097F9089591505040660F771F881FD2F784
:1023400008959F938F937F936F93FF93EF939B01D8
:10235000AC0137DFEF91FF918EDE2F913F914F91CE
:102360005F912FCF662777270C942C14FC018827C8
:102370009927E89421912032E9F3293010F02E308A
:10238000C8F32B3241F02D3239F4689404C00E9416
:102390001612820F911D219120532A30C0F31EF492
:1023A000909581959F4F089542EC52E00E94D9117B
:1023B0000895FA01A191B081009719F41097E1F006
:1023C000CD01DC01CD010D90002011F4C00113C03E
:1023D000FB012191222319F02015D9F7F3CFFB013E
:1023E0002191201519F41E92119606C02223C1F7DF
:1023F0000D900020A1F7D001FA01A193B0830895B8
:102400004532510520F4423010F00C940B12FB01C0
:102410001082CB010895BB274A3031F4992322F46E
:10242000BDE2909581959F4F0C941F127AE0979F83
:10243000902D879F802D910D11240895BB27FB01BE
:102440005527AA27880F991FAA1FA41710F0A41BAD
:1024500083955051B9F7A05DAA3308F0A95DA19307
:10246000009779F7B111B1931192CB010C94C51576
:10247000AEE0B0E0EEE3F2E10C9481160D891E8926
:1024800086E08C831A8309838FEF9FE79E838D8379
:10249000AE01475E5F4F6F89788DCE0101960E9435
:1024A0005A12EF81F885E00FF11F10822E96E4E0BA
:1024B0000C949D16ACE0B0E0E0E6F2E10C947316EB
:1024C0007C016B018A01FC0117821682838181FFE6
:1024D000BDC1CE0101964C01F7019381F60193FD38
:1024E000859193FF81916F01882309F4ABC18532F7
:1024F00039F493FD859193FF81916F01853229F421
:10250000B70190E00E94D515E7CF512C312C20E087
:102510002032A0F48B3269F030F4803259F08332EB
:1025200069F420612CC08D3239F0803339F4216098
:1025300026C02260246023C0286021C027FD27C058
:1025400030ED380F3A3078F426FF06C0FAE05F9E8F
:10255000300D1124532E13C08AE0389E300D112403
:10256000332E20620CC08E3221F426FD6BC1206414
:1025700006C08C3611F4206802C0883641F4F6019A
:1025800093FD859193FF81916F018111C1CF982FA8
:102590009F7D9554933028F40C5F1F4FFFE3F98320
:1025A0000DC0833631F0833771F0833509F05BC09D
:1025B00022C0F801808189830E5F1F4F4424439419
:1025C000512C540115C03801F2E06F0E711CF80156
:1025D000A080B18026FF03C0652D70E002C06FEFC0
:1025E0007FEFC5012C870E94BA152C0183012C8531
:1025F0002F77222E17C03801F2E06F0E711CF80100
:10260000A080B18026FF03C0652D70E002C06FEF8F
:102610007FEFC5012C870E94AF152C012C85206807
:10262000222E830123FC1BC0832D90E048165906FF
:10263000B0F4B70180E290E00E94D5153A94F4CF4F
:10264000F50127FC859127FE81915F01B70190E09C
:102650000E94D51531103A94F1E04F1A51084114F7
:10266000510471F7E5C0843611F0893639F5F80167
:1026700027FF07C060817181828193810C5F1F4FAA
:1026800008C060817181882777FD8095982F0E5F43
:102690001F4F2F76B22E97FF09C0909580957095A9
:1026A00061957F4F8F4F9F4F2068B22E2AE030E018
:1026B000A4010E940716A82EA81844C0853729F443
:1026C0002F7EB22E2AE030E025C0F22FF97FBF2EF8
:1026D0008F36C1F018F4883579F0B4C0803719F01E
:1026E000883721F0AFC02F2F2061B22EB4FE0DC06D
:1026F0008B2D8460B82E09C024FF0AC09F2F9660DE
:10270000B92E06C028E030E005C020E130E002C06C
:1027100020E132E0F801B7FE07C06081718182815B
:1027200093810C5F1F4F06C06081718180E090E053
:102730000E5F1F4FA4010E940716A82EA818FB2D9C
:10274000FF77BF2EB6FE0BC02B2D2E7FA51450F4A5
:10275000B4FE0AC0B2FC08C02B2D2E7E05C07A2C18
:102760002B2D03C07A2C01C0752C24FF0DC0FE0157
:10277000EA0DF11D8081803311F4297E09C022FF0A
:1027800006C07394739404C0822F867809F0739402
:1027900023FD13C020FF06C05A2C731418F4530CE9
:1027A0005718732C731468F4B70180E290E02C87FB
:1027B0000E94D51573942C85F5CF731410F4371837
:1027C00001C0312C24FF12C0B70180E390E02C87B8
:1027D0000E94D5152C8522FF17C021FF03C088E574
:1027E00090E002C088E790E0B7010CC0822F8678A5
:1027F00059F021FD02C080E201C08BE227FD8DE28D
:10280000B70190E00E94D515A51438F4B70180E314
:1028100090E00E94D5155A94F7CFAA94F401EA0DDE
:10282000F11D8081B70190E00E94D515A110F5CF70
:10283000332009F451CEB70180E290E00E94D51513
:102840003A94F6CFF7018681978102C08FEF9FEF10
:102850002C96E2E10C948F16A0E0B0E0E2E3F4E104
:102860000C9479168B016115710521F0DB018C93B5
:1028700011969C93EC015E01BFEFAB1ABB0A750188
:10288000C8808C2D90E00E948F15892B11F0E501F6
:10289000F2CFEDE2CE1208C07E01F2E0EF0EF11CA5
:1028A000C980DD24D39409C02BE2C21205C07E0189
:1028B00042E0E40EF11CC980D12CE701219743E0EE
:1028C00050E066EB70E0CE010E949715892BC1F4B1
:1028D000239645E050E061EB70E0CE010E94971531
:1028E000892B09F425960115110519F0D801CD930E
:1028F000DC93D11006C160E070E080E89FE70AC178
:1029000043E050E06EEA70E0CE010E949715892BFB
:1029100059F40115110509F4F9C0B2E0EB0EF11CF0
:10292000F801F182E082F2C0F70160E070E0CB01D3
:10293000C0E0D0E07F01A0EDAA2EAC0C29E02A1562
:1029400030F14D2D4260B42E2D2D2870D2FE04C0E2
:10295000211125C0219623C021112197A5E0B0E0C7
:102960009B01AC010E946816660F771F881F991F94
:102970006A0D711D811D911D6839A9E97A078A07C1
:10298000A9E19A0760F0BD2DB660BB2E08C02EEFFE
:10299000A2120AC0D3FC50C04D2D4860B42E31960F
:1029A000D701CC90DB2CC6CF2C2D2F7D253409F000
:1029B00043C0A081AD3241F4BD2DB061DB2E7F015B
:1029C00022E0E20EF11C0CC07F01AB3231F04FEF80
:1029D000E41AF40A21E030E006C0A2E0EA0EF11C9D
:1029E000A18122E030E0A053AA3018F0E21AF30AE5
:1029F00023C0F70120E030E02038BCE03B075CF466
:102A0000A901440F551F440F551F240F351F220FD6
:102A1000331F2A0F311DAF014F5F5F4F7A01A08135
:102A2000A053AA3010F4FA01E7CFD4FE03C03195C9
:102A300021953109C20FD31FD1FE09C0011511051F
:102A400031F0E1E0EE1AF108D801ED92FC920E941B
:102A5000B60F2D2D2370233019F04B015C0106C0F9
:102A60004B015C01B7FAB094B7F8B09420E030E0C5
:102A7000A901C501B4010E94160F882309F43EC0C4
:102A8000D7FF06C0D195C195D1090DEC10E002C069
:102A900005EE10E06801B8E1CB1AD10890E2E92E0A
:102AA000F12CCE15DF0574F0F80125913591459193
:102AB0005491C501B4010E94E1104B015C01CE1993
:102AC000DF09EFCF04501109F594E7940C151D05AB
:102AD00041F78A2D880F8B2D881F8F3F49F020E00A
:102AE00030E0A901C501B4010E94160F811106C092
:102AF00082E290E09093080380930703C501B4013C
:102B000009C060E070E080E89FEF04C060E070E022
:102B100080EC9FE7CDB7DEB7ECE00C9495169111F1
:102B2000D4C0803219F089508550D0F70895FB0148
:102B3000DC014150504088F08D9181341CF08B3580
:102B40000CF4805E659161341CF06B350CF4605EB2
:102B5000861B611171F3990B0895881BFCCFFC0152
:102B60000590615070400110D8F7809590958E0FB8
:102B70009F1F0895FC016150704001900110D8F72B
:102B8000809590958E0F9F1F0895DC01FC01672FA3
:102B900071917723E1F7329704C07C916D93708334
:102BA0006291AE17BF07C8F308950F931F93CF9399
:102BB000DF93182F092FEB018B8181FD03C08FEF6D
:102BC0009FEF20C082FF10C04E815F812C813D812C
:102BD000421753077CF4E881F9819F012F5F3F4F33
:102BE00039832883108306C0E885F985812F0995EC
:102BF000892B29F72E813F812F5F3F4F3F832E8303
:102C0000812F902FDF91CF911F910F910895FA019D
:102C1000AA27283051F1203181F1E8946F936E7F1B
:102C20006E5F7F4F8F4F9F4FAF4FB1E03ED0B4E00C
:102C30003CD0670F781F891F9A1FA11D680F791F4D
:102C40008A1F911DA11D6A0F711D811D911DA11D5E
:102C500020D009F468943F912AE0269F112430196E
:102C6000305D3193DEF6CF010895462F4770405D09
:102C70004193B3E00FD0C9F7F6CF462F4F70405DB8
:102C80004A3318F0495D31FD4052419302D0A9F713
:102C9000EACFB4E0A6959795879577956795BA950D
:102CA000C9F700976105710508959B01AC010A2ED3
:102CB00006945795479537952795BA95C9F7620FAA
:102CC000731F841F951FA01D0895992788270895B5
:102CD0000E94AA16A59F900DB49F900DA49F800DF1
:102CE000911D112408952F923F924F925F926F92FF
:102CF0007F928F929F92AF92BF92CF92DF92EF928C
:102D0000FF920F931F93CF93DF93CDB7DEB7CA1B0C
:102D1000DB0B0FB6F894DEBF0FBECDBF09942A8837
:102D2000398848885F846E847D848C849B84AA84DF
:102D3000B984C884DF80EE80FD800C811B81AA816C
:102D4000B981CE0FD11D0FB6F894DEBF0FBECDBF37
:102D5000ED010895A29FB001B39FC001A39F700D24
:102D6000811D1124911DB29F700D811D1124911D93
:062D70000895F894FFCF66
:102D7600FEFF33322E3032303400000000000000F7
:102D8600000000000000000000000000000000003D
:102D9600000000000000000000000000000000002D
:102DA600000000000000000000000000000000001D
:102DB600000000000000000000000000000000000D
:102DC60000000000000000000000000000000000FD
:102DD6000000000000002D3131382E323839310024
:102DE60000000000000000000000000000000000DD
:102DF60000000000000000000000000000000000CD
:102E060000000000000000000000000000000000BC
:102E160000000000000000000000000000000000AC
:102E2600000000000000000000000000000000009C
:102E36000000000000000000000028292A2B2C2D8D
:102E46002C00536174656C6C697465733A20005785
:102E5600656C636F6D6500476F50726F2053636FCB
:102E66007574005465616D20352050726F6A656314
:102E76007400467269656E642773204C61746974C8
:102E86007564653A00467269656E642773204C6FF7
:102E96006E6769747564653A006D696C6573005098
:102EA600726573732E28496E4867293A2000416C73
:102EB600746974756465286D293A200054656D70CF
:102EC6002843293A20004E4F54204D4F56494E472D
:102ED600007374657073203A20256400426C756532
:102EE6003A204D6F74696F6E2053656E736F720072
:102EF6005265643A2047505300426C61636B3A2036
:102F060053656E736F722044617461004772656524
:102F16006E3A20467269656E6427732047505300E7
:102F26000D73657420746F2069646C650A0D00006A
:00000001FF
