:100000000C9434000C9446000C9446000C9446006A
:100010000C9446000C9446000C9446000C94460048
:100020000C9446000C9446000C9446000C94460038
:100030000C9446000C9446000C9446000C94460028
:100040000C9446000C9446000C9494000C944600CA
:100050000C9446000C9446000C9446000C94460008
:100060000C9446000C94460011241FBECFEFD8E03C
:10007000DEBFCDBF21E0A0E0B1E001C01D92A636F9
:10008000B207E1F70E94BA000C94C1000C94000082
:1000900090E09093C5008093C400E1ECF0E0808193
:1000A0008869808386E08093C20008959091C000A3
:1000B00095FFFCCF8093C6000895CF93DF93EC01AA
:1000C0008991882319F00E945600FACFDF91CF91D1
:1000D0000895CF93C82F8432B9F4E0910001F091D4
:1000E0000101EE5FFE4F8DE0808382E091E00E948F
:1000F0005D00E2E0F1E0119281E0E636F807D9F721
:100100001092010110920001209100013091010133
:10011000F901EE5FFE4FC0832F5F3F4F3093010127
:1001200020930001CF9108951F920F920FB60F9266
:1001300011242F933F934F935F936F937F938F93EC
:100140009F93AF93BF93EF93FF938091C6000E945C
:100150006900FF91EF91BF91AF919F918F917F9136
:100160006F915F914F913F912F910F900FBE0F9024
:100170001F901895519A589A78948FE20E944800DF
:06018000FFCFF894FFCF51
:00000001FF
