:100000000C9434000C9446000C9446000C9446006A
:100010000C9446000C9446000C9446000C94460048
:100020000C9446000C9446000C9446000C94460038
:100030000C9446000C9446000C9446000C94460028
:100040000C9446000C9446000C9448000C94460016
:100050000C9446000C9446000C9446000C94460008
:100060000C9446000C94460011241FBECFEFD8E03C
:10007000DEBFCDBF21E0A0E0B1E001C01D92A630FF
:10008000B207E1F70E946F000C94C4000C940000CA
:100090001F920F920FB60F9211242F933F934F93FD
:1000A0005F936F937F938F939F93AF93BF93EF93E0
:1000B000FF938091C60090E00E948B00FF91EF912A
:1000C000BF91AF919F918F917F916F915F914F9170
:1000D0003F912F910F900FBE0F901F901895519A3E
:1000E000589A8091680082608093680080916C00CB
:1000F000866080936C00789487E690E09093C500CA
:100100008093C4008091C00088698093C00086E01D
:100110008093C200FFCF60910201709103010E94A1
:10012000920008950F931F93CF93DF93182F092FF9
:10013000EB018B8181FD03C08FEF9FEF20C082FF19
:1001400010C04E815F812C813D81421753077CF4A2
:10015000E881F9819F012F5F3F4F39832883108306
:1001600006C0E885F985812F0995892B29F72E810D
:100170003F812F5F3F4F3F832E83812F902FDF9151
:0C018000CF911F910F910895F894FFCFCC
:00000001FF
