:100000000C9452000C946F000C946F000C946F00D1
:100010000C946F000C946F000C946F000C946F00A4
:100020000C946F000C946F000C946F000C946F0094
:100030000C946F000C946F000C946F000C946F0084
:100040000C946F000C946F000C946F000C946F0074
:100050000C946F000C946F000C946F000C946F0064
:100060000C946F000C946F004E414E494E49545908
:10007000494E46CDCCCC3D0AD7233C17B7D1387773
:10008000CC2B329595E6241FB14F0A000020410089
:1000900000C84200401C4620BCBE4CCA1B0E5AAED3
:1000A000C59D740011241FBECFEFD8E0DEBFCDBFC9
:1000B00011E0A0E0B1E0E8EFF4E102C005900D929C
:1000C000A832B107D9F721E0A8E2B1E001C01D9242
:1000D000AC32B207E1F70E9439030C947A0A0C940F
:1000E000000090E09093C5008093C400E1ECF0E044
:1000F00080818860808386E08093C200089580912B
:10010000C00087FFFCCF8091C60008959091C00089
:1001100095FFFCCF8093C6000895CF93DF93EC0149
:100120008991882319F00E948600FACFDF91CF9140
:1001300008958EEF0E94860081E40E9486008FEF72
:100140009FE50197F1F700C000008EEF0E94860046
:1001500081E50E9486008FEF9FE50197F1F700C0CF
:10016000000008958EEF0E94860081E50E948600BF
:100170008FEF9FE50197F1F700C0000008951F93EE
:10018000CF93DF93182FEB018EEF0E94860085E45A
:100190000E948600812F0E948600CE01DF91CF91C0
:1001A0001F910C948D001F93CF93DF93EC0110E00F
:1001B000812F992787FD9095FE0101900020E9F796
:1001C0003197EC1BFD0B8E179F0740F4FE01E80FE3
:1001D000F91F80810E9486001F5FEACF8DE00E9498
:1001E00086008AE0DF91CF911F910C9486001F93C7
:1001F000CF93DF93182FEB018EEF0E94860085E4EA
:100200000E948600812F0E948600CE01DF91CF914F
:100210001F910C94D3004F925F926F927F928F92B6
:100220009F92AF92BF92CF92DF92EF92FF920F9385
:100230001F93CF93DF93CDB7DEB7A3970FB6F89494
:10024000DEBF0FBECDBF8C0160E071E00E94A00553
:10025000E0E00097A9F0FF24F394FE0EEE0FFF0BF1
:1002600021E030E02C0F3D1FE20FF31F91838083CC
:1002700060E071E080E090E00E94A005EF2DE9CF02
:100280008B859C850E948205780135E6E30EF11C82
:10029000F701918380838D859E850E948205F801F8
:1002A000E959FF4F9183808389899A890E947E054D
:1002B000F801EF58FF4F6083718382839383F701C6
:1002C00080819181892B09F46EC019A21AA21BA208
:1002D000CB80DC80F601808189A381818AA3CE0155
:1002E00081960E9482057C01C60102960E947E05CD
:1002F0002B013C015801F9E6AF0EB11CB70188276C
:1003000077FD8095982F0E946B046B017C0120E0A3
:1003100030E040E752E4C301B2010E94D0039B01E8
:10032000AC01C701B6010E946803F50160837183C7
:10033000828393831D8E1E8E1F8E18A2CF80D88439
:10034000F60180818D8F81818E8F82818F8FCE018A
:100350004D960E9482057C01C60103960E947E058F
:100360004B015C0103591F4FB701882777FD80952A
:10037000982F0E946B046B017C0120E030E040E785
:1003800052E4C501B4010E94D0039B01AC01C70136
:10039000B6010E946803DC01CB01B058F8018083EC
:1003A0009183A283B383A3960FB6F894DEBF0FBEEA
:1003B000CDBFDF91CF911F910F91FF90EF90DF9014
:1003C000CF90BF90AF909F908F907F906F905F90F5
:1003D0004F900895EF92FF920F931F93CF93DF9367
:1003E0007C01C0E0D0E08C010C591F4F0E947F00BF
:1003F000209711F48432B9F1873421F4C130D1054A
:1004000039F434C0803559F4C230D10581F431C09B
:10041000C330D10589F1C430D10549F430C08134ED
:1004200031F4C530D10519F4C6E0D0E0DFCFC630D5
:10043000D10541F5F801908121E0290F2083F701D2
:10044000E90FF11D97FDFA9580838D3079F6C7018C
:100450000E940B01F8011082DF91CF911F910F9143
:10046000FF90EF900895C1E0D0E0C0CFC2E0D0E0AF
:10047000BDCFC3E0D0E0BACFC4E0D0E0B7CFC5E095
:10048000D0E0B4CFC0E0D0E0B1CF3F924F925F92C6
:100490006F927F928F929F92AF92BF92CF92DF9294
:1004A000EF92FF920F931F93CF93DF932B013C01A9
:1004B000EA01B22E0E9438046B017C018B014AE0F4
:1004C000BE01C6010E94CC0520E030E0A901C301B5
:1004D000B2010E94CC0387FF08C077FA709477F8C6
:1004E0007094002711270C191D09FE0101900020AE
:1004F000E9F73197EC1BFD0B332433943E0E8E2E1F
:10050000992487FC9094FE01E80DF91D8EE280830A
:10051000E12CF12C8B0C911CB7FC9A94C32CCE0CC3
:10052000DD24C7FCD094BFEFEB1AFB0A8C149D04AA
:100530003CF1B801882777FD8095982F0E946B04C5
:100540009B01AC01C301B2010E94670320E030E0CF
:1005500040E251E40E941B052B013C010E9438043B
:10056000DC01CB018C014AE0A12CB12CB5010E9429
:10057000CC05FE01EC0DFD1DD5018C918083CECF05
:10058000DF91CF911F910F91FF90EF90DF90CF906F
:10059000BF90AF909F908F907F906F905F904F90A3
:1005A0003F900895EF92FF920F931F93CF93DF93A5
:1005B000CDB7DEB7C456D1090FB6F894DEBF0FBE73
:1005C000CDBF7C01FC01E759FF4F608171818281C1
:1005D000938123E08E010F5F1F4FA8010E94450207
:1005E00062E071E080E00E94BF00B8018AE00E94F2
:1005F000BF00F701E359FF4F6081718182819381D0
:1006000023E0A8010E9445026CE071E080E40E94B2
:10061000BF00B8018BE40E94BF0067E171E084E194
:100620000E94BF00F701E959FF4F81818F938081BC
:100630008F9384E291E09F938F931F930F930E9477
:10064000F905B80180E20E94BF000F900F900F9053
:100650000F900F900F90CC59DF4F0FB6F894DEBF7C
:100660000FBECDBFDF91CF911F910F91FF90EF9003
:100670000895CF93DF93CDB7DEB7C557D1090FB635
:10068000F894DEBF0FBECDBF8FE20E947100809153
:10069000C10088698093C100A6961FAEA6970E94EC
:1006A000B2000E947F000E948600CE0101960E9447
:1006B000EA01CE0101960E94D2022FEF8FEF9BE359
:1006C000215080409040E1F700C00000E8CF505832
:1006D000BB27AA270ED075C166D130F06BD120F0B0
:1006E00031F49F3F11F41EF45BC10EF4E095E7FB7B
:1006F00051C1E92F77D180F3BA17620773078407D6
:10070000950718F071F49EF58FC10EF4E0950B2E4D
:10071000BA2FA02D0B01B90190010C01CA01A00153
:100720001124FF27591B99F0593F50F4503E68F1AE
:100730001A16F040A22F232F342F4427585FF3CFEF
:10074000469537952795A795F0405395C9F77EF4C0
:100750001F16BA0B620B730B840BBAF09150A1F009
:10076000FF0FBB1F661F771F881FC2F70EC0BA0F8F
:10077000621F731F841F48F4879577956795B79517
:10078000F7959E3F08F0B3CF9395880F08F099270F
:10079000EE0F979587950895D9D008F481E00895D4
:1007A0000CD00FC107D140F0FED030F021F45F3FF4
:1007B00019F0F0C0511139C1F3C014D198F3992345
:1007C000C9F35523B1F3951B550BBB27AA27621715
:1007D0007307840738F09F5F5F4F220F331F441F5A
:1007E000AA1FA9F333D00E2E3AF0E0E830D0915092
:1007F0005040E695001CCAF729D0FE2F27D0660F7F
:10080000771F881FBB1F261737074807AB07B0E8BD
:1008100009F0BB0B802DBF01FF2793585F4F2AF0D3
:100820009E3F510568F0B6C000C15F3FECF3983EB3
:10083000DCF3869577956795B795F7959F5FC9F730
:10084000880F911D9695879597F90895E1E0660FB9
:10085000771F881FBB1F621773078407BA0720F032
:10086000621B730B840BBA0BEE1F88F7E09508959B
:1008700004D06894B111D9C00895BCD088F09F57B6
:1008800090F0B92F9927B751A0F0D1F0660F771FDC
:10089000881F991F1AF0BA95C9F712C0B13081F0BC
:1008A000C3D0B1E00895C0C0672F782F8827B85F04
:1008B00039F0B93FCCF3869577956795B395D9F71D
:1008C0003EF490958095709561957F4F8F4F9F4F27
:1008D0000895E89409C097FB3EF490958095709533
:1008E00061957F4F8F4F9F4F9923A9F0F92F96E97C
:1008F000BB279395F695879577956795B795F111F1
:10090000F8CFFAF4BB0F11F460FF1BC06F5F7F4F8D
:100910008F4F9F4F16C0882311F096E911C077239F
:1009200021F09EE8872F762F05C0662371F096E8A8
:10093000862F70E060E02AF09A95660F771F881F77
:10094000DAF7880F9695879597F90895990F00081B
:10095000550FAA0BE0E8FEEF16161706E807F90791
:10096000C0F012161306E407F50798F0621B730B2C
:10097000840B950B39F40A2661F0232B242B252BAD
:1009800021F408950A2609F4A140A6958FEF811D50
:10099000811D089597F99F6780E870E060E00895F1
:1009A0009FEF80EC089500240A9416161706180687
:1009B0000906089500240A94121613061406050663
:1009C0000895092E0394000C11F4882352F0BB0FF4
:1009D00040F4BF2B11F460FF04C06F5F7F4F8F4F57
:1009E0009F4F089557FD9058440F551F59F05F3F92
:1009F00071F04795880F97FB991F61F09F3F79F041
:100A000087950895121613061406551FF2CF4695C2
:100A1000F1DF08C0161617061806991FF1CF869544
:100A20007105610508940895E894BB276627772728
:100A3000CB0197F908950BD0C4CFB5DF28F0BADF0A
:100A400018F0952309F0A6CFABCF1124EECFCADF63
:100A5000A0F3959FD1F3950F50E0551F629FF001D1
:100A6000729FBB27F00DB11D639FAA27F00DB11D2A
:100A7000AA1F649F6627B00DA11D661F829F2227B3
:100A8000B00DA11D621F739FB00DA11D621F839F3A
:100A9000A00D611D221F749F3327A00D611D231F10
:100AA000849F600D211D822F762F6A2F11249F575E
:100AB00050408AF0E1F088234AF0EE0FFF1FBB1F81
:100AC000661F771F881F91505040A9F79E3F510520
:100AD00070F060CFAACF5F3FECF3983EDCF38695D1
:100AE00077956795B795F795E7959F5FC1F7FE2BCB
:100AF000880F911D9695879597F908956627772712
:100B00000C94ED07FC0188279927E8942191203265
:100B1000E9F3293010F02E30C8F32B3241F02D329A
:100B200039F4689404C00E94D705820F911D219169
:100B300020532A30C0F31EF4909581959F4F08955D
:100B400048E251E00E94A5050895FA01A191B08103
:100B5000009719F41097E1F0CD01DC01CD010D9063
:100B6000002011F4C00113C0FB012191222319F0D0
:100B70002015D9F7F3CFFB012191201519F41E920E
:100B8000119606C02223C1F70D900020A1F7D001D5
:100B9000FA01A193B0830895BB274A3031F4992319
:100BA00022F4BDE2909581959F4F0C94E0057AE088
:100BB000979F902D879F802D910D11240895BB271D
:100BC000FB015527AA27880F991FAA1FA41710F009
:100BD000A41B83955051B9F7A05DAA3308F0A95D15
:100BE000A193009779F7B111B1931192CB010C94B5
:100BF0008609AEE0B0E0EFEFF5E00C94420A0D8913
:100C00001E8986E08C831A8309838FEF9FE79E837A
:100C10008D83AE01475E5F4F6F89788DCE0101965F
:100C20000E941B06EF81F885E00FF11F10822E96BF
:100C3000E4E00C945E0AACE0B0E0E1E2F6E00C9493
:100C4000340A7C016B018A01FC01178216828381C0
:100C500081FFBDC1CE0101964C01F7019381F601E0
:100C600093FD859193FF81916F01882309F4ABC1B6
:100C7000853239F493FD859193FF81916F0185321F
:100C800029F4B70190E00E949609E7CF512C312C4E
:100C900020E02032A0F48B3269F030F4803259F039
:100CA000833269F420612CC08D3239F0803339F4FD
:100CB000216026C02260246023C0286021C027FD57
:100CC00027C030ED380F3A3078F426FF06C0FAE03E
:100CD0005F9E300D1124532E13C08AE0389E300DD4
:100CE0001124332E20620CC08E3221F426FD6BC1FC
:100CF000206406C08C3611F4206802C0883641F4A6
:100D0000F60193FD859193FF81916F018111C1CF10
:100D1000982F9F7D9554933028F40C5F1F4FFFE36D
:100D2000F9830DC0833631F0833771F0833509F0D4
:100D30005BC022C0F801808189830E5F1F4F44246D
:100D40004394512C540115C03801F2E06F0E711C10
:100D5000F801A080B18026FF03C0652D70E002C0BD
:100D60006FEF7FEFC5012C870E947B092C01830167
:100D70002C852F77222E17C03801F2E06F0E711CE0
:100D8000F801A080B18026FF03C0652D70E002C08D
:100D90006FEF7FEFC5012C870E9470092C012C8515
:100DA0002068222E830123FC1BC0832D90E048166F
:100DB0005906B0F4B70180E290E00E9496093A9497
:100DC000F4CFF50127FC859127FE81915F01B701E2
:100DD00090E00E94960931103A94F1E04F1A5108C0
:100DE0004114510471F7E5C0843611F0893639F5A4
:100DF000F80127FF07C060817181828193810C5FB8
:100E00001F4F08C060817181882777FD8095982FDA
:100E10000E5F1F4F2F76B22E97FF09C090958095D9
:100E2000709561957F4F8F4F9F4F2068B22E2AE0BB
:100E300030E0A4010E94C809A82EA81844C0853734
:100E400029F42F7EB22E2AE030E025C0F22FF97F60
:100E5000BF2E8F36C1F018F4883579F0B4C08037D2
:100E600019F0883721F0AFC02F2F2061B22EB4FEC9
:100E70000DC08B2D8460B82E09C024FF0AC09F2F9F
:100E80009660B92E06C028E030E005C020E130E0D1
:100E900002C020E132E0F801B7FE07C06081718135
:100EA000828193810C5F1F4F06C06081718180E059
:100EB00090E00E5F1F4FA4010E94C809A82EA81839
:100EC000FB2DFF77BF2EB6FE0BC02B2D2E7FA5145A
:100ED00050F4B4FE0AC0B2FC08C02B2D2E7E05C013
:100EE0007A2C2B2D03C07A2C01C0752C24FF0DC049
:100EF000FE01EA0DF11D8081803311F4297E09C0C5
:100F000022FF06C07394739404C0822F867809F080
:100F1000739423FD13C020FF06C05A2C731418F4D9
:100F2000530C5718732C731468F4B70180E290E0E7
:100F30002C870E94960973942C85F5CF731410F4B6
:100F4000371801C0312C24FF12C0B70180E390E0B4
:100F50002C870E9496092C8522FF17C021FF03C011
:100F600088E590E002C088E790E0B7010CC0822FCE
:100F7000867859F021FD02C080E201C08BE227FD96
:100F80008DE2B70190E00E949609A51438F4B701EC
:100F900080E390E00E9496095A94F7CFAA94F40156
:100FA000EA0DF11D8081B70190E00E949609A11021
:100FB000F5CF332009F451CEB70180E290E00E94D2
:100FC00096093A94F6CFF7018681978102C08FEF98
:100FD0009FEF2C96E2E10C94500AA0E0B0E0E3EF22
:100FE000F7E00C943A0A8B016115710521F0DB01E1
:100FF0008C9311969C93EC015E01BFEFAB1ABB0A78
:101000007501C8808C2D90E00E945009892B11F049
:10101000E501F2CFEDE2CE1208C07E01F2E0EF0E64
:10102000F11CC980DD24D39409C02BE2C21205C093
:101030007E0142E0E40EF11CC980D12CE70121972A
:1010400043E050E060E770E0CE010E945809892B30
:10105000C1F4239645E050E06BE670E0CE010E94BB
:101060005809892B09F425960115110519F0D801A5
:10107000CD93DC93D11006C160E070E080E89FE77B
:101080000AC143E050E068E670E0CE010E945809D2
:10109000892B59F40115110509F4F9C0B2E0EB0EE2
:1010A000F11CF801F182E082F2C0F70160E070E02B
:1010B000CB01C0E0D0E07F01A0EDAA2EAC0C29E06E
:1010C0002A1530F14D2D4260B42E2D2D2870D2FE00
:1010D00004C0211125C0219623C021112197A5E02C
:1010E000B0E09B01AC010E94290A660F771F881FA0
:1010F000991F6A0D711D811D911D6839A9E97A0733
:101100008A07A9E19A0760F0BD2DB660BB2E08C022
:101110002EEFA2120AC0D3FC50C04D2D4860B42E51
:101120003196D701CC90DB2CC6CF2C2D2F7D2534CA
:1011300009F043C0A081AD3241F4BD2DB061DB2E7A
:101140007F0122E0E20EF11C0CC07F01AB3231F0D6
:101150004FEFE41AF40A21E030E006C0A2E0EA0E04
:10116000F11CA18122E030E0A053AA3018F0E21A6D
:10117000F30A23C0F70120E030E02038BCE03B0751
:101180005CF4A901440F551F440F551F240F351F50
:10119000220F331F2A0F311DAF014F5F5F4F7A01BE
:1011A000A081A053AA3010F4FA01E7CFD4FE03C007
:1011B000319521953109C20FD31FD1FE09C0011508
:1011C000110531F0E1E0EE1AF108D801ED92FC9240
:1011D0000E9469042D2D2370233019F04B015C010E
:1011E00006C04B015C01B7FAB094B7F8B09420E0A8
:1011F00030E0A901C501B4010E94CC03882309F4A1
:101200003EC0D7FF06C0D195C195D10907E810E0CF
:1012100002C00FE910E06801B8E1CB1AD10890E2F2
:10122000E92EF12CCE15DF0574F0F80125913591EA
:1012300045915491C501B4010E941B054B015C010D
:10124000CE19DF09EFCF04501109F594E7940C157E
:101250001D0541F78A2D880F8B2D881F8F3F49F080
:1012600020E030E0A901C501B4010E94CC03811146
:1012700006C082E290E090932B0180932A01C50181
:10128000B40109C060E070E080E89FEF04C060E056
:1012900070E080EC9FE7CDB7DEB7ECE00C94560A27
:1012A0009111D4C0803219F089508550D0F708953B
:1012B000FB01DC014150504088F08D9181341CF0DD
:1012C0008B350CF4805E659161341CF06B350CF449
:1012D000605E861B611171F3990B0895881BFCCF2A
:1012E000FC010590615070400110D8F780959095F1
:1012F0008E0F9F1F0895FC016150704001900110F6
:10130000D8F7809590958E0F9F1F0895DC01FC0102
:10131000672F71917723E1F7329704C07C916D9329
:1013200070836291AE17BF07C8F308950F931F93A0
:10133000CF93DF93182F092FEB018B8181FD03C021
:101340008FEF9FEF20C082FF10C04E815F812C8104
:101350003D81421753077CF4E881F9819F012F5F9B
:101360003F4F39832883108306C0E885F985812F94
:101370000995892B29F72E813F812F5F3F4F3F83AE
:101380002E83812F902FDF91CF911F910F91089580
:10139000FA01AA27283051F1203181F1E8946F93A6
:1013A0006E7F6E5F7F4F8F4F9F4FAF4FB1E03ED04C
:1013B000B4E03CD0670F781F891F9A1FA11D680FEA
:1013C000791F8A1F911DA11D6A0F711D811D911D1D
:1013D000A11D20D009F468943F912AE0269F112492
:1013E0003019305D3193DEF6CF010895462F4770F6
:1013F000405D4193B3E00FD0C9F7F6CF462F4F7051
:10140000405D4A3318F0495D31FD4052419302D0AE
:10141000A9F7EACFB4E0A695979587957795679554
:10142000BA95C9F700976105710508959B01AC0154
:101430000A2E06945795479537952795BA95C9F77B
:10144000620F731F841F951FA01D08959927882779
:1014500008950E946B0AA59F900DB49F900DA49FC4
:10146000800D911D112408952F923F924F925F920B
:101470006F927F928F929F92AF92BF92CF92DF92A4
:10148000EF92FF920F931F93CF93DF93CDB7DEB709
:10149000CA1BDB0B0FB6F894DEBF0FBECDBF09949D
:1014A0002A88398848885F846E847D848C849B84F4
:1014B000AA84B984C884DF80EE80FD800C811B8102
:1014C000AA81B981CE0FD11D0FB6F894DEBF0FBE31
:1014D000CDBFED010895A29FB001B39FC001A39FAE
:1014E000700D811D1124911DB29F700D811D11245D
:0814F000911D0895F894FFCF4F
:1014F8002C004C617469747564653A004C6F6E67B2
:1015080069747564653A00536174656C6C697465D7
:08151800733A20002564000075
:00000001FF
