:100000000C9434000C943E000C943E000C943E0082
:100010000C943E000C943E000C943E000C943E0068
:100020000C943E000C943E000C943E000C943E0058
:100030000C943E000C943E000C943E000C943E0048
:100040000C943E000C943E000C9455000C943E0021
:100050000C943E000C943E000C943E000C943E0028
:100060000C943E000C943E0011241FBECFEFD8E04C
:10007000DEBFCDBF0E945F000C9466000C940000B0
:1000800090E09093C5008093C400E1ECF0E08081A3
:100090008869808386E08093C20008959091C000B3
:1000A00095FFFCCF8093C60008951F920F920FB664
:1000B0000F9211240F900FBE0F901F901895519A18
:1000C000589A78948FE20E944000FFCFF894FFCFB7
:00000001FF
