:100000000C9434000C948A000C9451000C94510010
:100010000C9451000C9451000C9451000C9451001C
:100020000C9451000C9451000C9451000C9451000C
:100030000C9451000C9451000C9451000C945100FC
:100040000C9451000C9451000C9451000C945100EC
:100050000C9451000C9451000C9451000C945100DC
:100060000C9451000C94510011241FBECFEFD8E026
:10007000DEBFCDBF11E0A0E0B1E0E8E0FAE002C0F1
:1000800005900D92A832B107D9F721E0A8E2B1E0BE
:1000900001C01D92A936B207E1F70E9463030C94D8
:1000A00002050C94000090E09093C5008093C4007A
:1000B000E1ECF0E080818860808386E08093C2007C
:1000C00008958091C00087FFFCCF8091C6000895FD
:1000D0009091C00095FFFCCF8093C6000895CF9308
:1000E000DF93EC018991882319F00E946800FACF10
:1000F000DF91CF91089552985A9AE9E6F0E0808115
:1001000083608083E89A7894EBE6F0E080818068F1
:10011000808308951F920F920FB60F9211242F9390
:100120003F934F935F936F937F938F939F93AF937F
:10013000BF93EF93FF9389E291E09F938F938DB7E5
:100140009EB7815491090FB6F8949EBF0FBE8DBF24
:10015000ADB7BEB7119681E4E8E2F1E001900D92EF
:100160008A95E1F70E942303809367018DB79EB7BC
:100170008D5B9F4F0FB6F8949EBF0FBE8DBFFF9152
:10018000EF91BF91AF919F918F917F916F915F910F
:100190004F913F912F910F900FBE0F901F90189588
:1001A000FC0120812EBD615071096115710531F08E
:1001B000FC0121810DB407FEFDCFF4CF0DB407FE85
:1001C000FDCF0895F89484B18C6084B981E58CBD2D
:1001D0007894089584B18C6284B924982A9A8CB555
:1001E000837D8CBD8DB581608DBD8CB580618CBDEE
:1001F0008CB580648CBD08958EBD0DB407FEFDCF17
:100200008EB50895FC0161157105B1F080818EBD38
:10021000615071096115710551F081810DB407FEBE
:10022000FDCF9EB58EBD8081890F8083F1CF0DB447
:1002300007FEFDCF8EB5808308956115710511F01D
:100240000C94D00008952A9808952A9A08958EBD96
:100250000DB407FEFDCF089580E184B980E48CBD24
:1002600008950DB407FEFDCF8EB508950E94EA00F3
:10027000F8948CB5837F8CBD8CB58F7D8CBD8CB58F
:100280008C7F8CBD8DB58E7F8DBD78940895CF9376
:10029000DF9300D000D0CDB7DEB7F8946C838B83AA
:1002A0000E9423018B81806889836C816A8362E06C
:1002B00070E0CE0101960E94D0000E942501789442
:1002C0000F900F900F900F90DF91CF910895F894B9
:1002D000219A2A988F770E94FC0080E00E94FC00FF
:1002E0002A9A78940895CF93DF93EC0168818FE286
:1002F0000E944701698180E3DF91CF910C9447010F
:10030000CF93C82F692F8CE20E9447016C2F8DE29A
:10031000CF910C944701CF92DF92EF92FF9220E0B1
:1003200034E244E759E40E949F0420E034E244E7C9
:1003300052E40E94BA030E9422046B017C01B701BF
:100340008827992787E00E94470199278F2D7E2DC6
:100350006D2D88E00E9447016C2D89E0FF90EF90A1
:10036000DF90CF900C944701CF93DF9300D0CDB7AF
:10037000DEB7389A419A2FEF8FEF92E021508040FC
:100380009040E1F700C000C041982FEF8FEF92E05E
:10039000215080409040E1F700C000C06FE88CE33E
:1003A0000E94470160E38FE60E94470165E58AE508
:1003B0000E94470160E78CE50E9447018DE2898336
:1003C0008DE48A83CE0101960E94730184E090E05F
:1003D0000E94800160E070E089ED93E40E948B014F
:1003E0000F900F90DF91CF910895CF93C82F81E0A8
:1003F0000E946701682F637ECC716C2B81E0CF91E6
:100400000C944701CF93C82F80320CF0CFE181E1EB
:100410000E946701807E6C2FC7FD6F5F6595682B1A
:1004200081E1CF910C944701CF93C82F882311F01D
:100430006FE001C06AE183E10E94470181E1CC23C2
:1004400031F00E946701682F6F71606604C00E94DE
:100450006701682F6F7181E1CF910C9447011F9361
:10046000CF93DF93EC01162F88818617C9F16111B4
:100470000FC0188265E58AE50E94470160E78CE5B8
:100480000E94470184E0DF91CF911F910C94F50108
:10049000613089F465E58AE50E94470160E78CE5F3
:1004A0000E94470180E10E94F50160E485E20E941C
:1004B000470180E012C0623099F46DE58AE50E9440
:1004C00047016CE78CE50E9447018CE00E94F50132
:1004D00060E085E20E94470181E00E9414021883D7
:1004E000DF91CF911F910895CF92DF92EF92FF920B
:1004F0000F931F93CF93DF93EC01CB01F89460E04F
:100500000E942F02229A2A9880E00E94FC0080E03C
:100510000E94FC00D82E8823A1F0C12CE82EFF24D5
:10052000E7FCF0942C2D30E02E153F0554F48E019D
:10053000020F131F80E00E94FC00F8018083C39427
:10054000F1CF2A9A78948D2DDF91CF911F910F9141
:10055000FF90EF90DF90CF9008950F931F93CF936C
:10056000DF93EC018FAD882379F01FAE8E010F5F12
:100570001F4FB801CE0102960E9474028EAF61E057
:10058000C8010E942F0281E0DF91CF911F910F914E
:1005900008959F92AF92BF92CF92DF92EF92FF9217
:1005A0000F931F93CF93DF9300D0CDB7DEB76C01CD
:1005B0008B01A42E8CE38417C4F1F89460E0C80189
:1005C0000E942F0287E20E94670187FFFBCF229AD9
:1005D0002A9880E88983AA8262E070E0CE010196C1
:1005E0000E94D000912CBB24A7FCB094E92CF12CE4
:1005F000EA14FB047CF4EC0CFD1CF70180810E94E2
:10060000FC00F7018081992787FD90950E94680082
:100610009394ECCF2A9A789462E0C8010E942F024A
:1006200088E20E94670183FFFBCF0F900F90DF915C
:10063000CF911F910F91FF90EF90DF90CF90BF90DF
:10064000AF909F9008951F93CF93DF9300D0CDB7C5
:10065000DEB72B968EAD9FAD2B979A838983FC01D5
:100660001081113039F0E981FA811081113041F0A7
:1006700010E00FC088E20E94670182FFF4CF09C03A
:1006800089E191E00E946F0060E0CE0109960E942E
:100690002F02812F0F900F90DF91CF911F9108951E
:1006A00061E083E20E94470183E20E94670181FFCB
:1006B000FBCF84E20E946701992781950CF4909505
:1006C0009595879508950E947B008FE20E945300C4
:1006D0000E94E20080E1809328011092290110928B
:1006E000660110926801399A41982FEF8FEF92E0DE
:1006F000215080409040E1F700C000C0419A2FEFA8
:100700008FEF92E0215080409040E1F700C000C0A0
:100710000E9436010E94B40180E091E00E946F00C7
:1007200061E089E291E00E942F02809167018823B5
:10073000D1F01092670169E271E08AE291E00E94D3
:1007400074028093660161E089E291E00E942F02C9
:100750008DE00E9468008AE291E00E946F0085E2CD
:1007600091E00E946F008FEF9FE50197F1F700C0C5
:100770000000DBCF0CD0A9C0A1D040F098D030F061
:1007800021F45F3F19F08AC05111D3C08DC0AED0A3
:1007900098F39923C9F35523B1F3951B550BBB2748
:1007A000AA2762177307840738F09F5F5F4F220FF5
:1007B000331F441FAA1FA9F333D00E2E3AF0E0E8EE
:1007C00030D091505040E695001CCAF729D0FE2F3A
:1007D00027D0660F771F881FBB1F261737074807CC
:1007E000AB07B0E809F0BB0B802DBF01FF27935882
:1007F0005F4F2AF09E3F510568F050C09AC05F3F9E
:10080000ECF3983EDCF3869577956795B795F79569
:100810009F5FC9F7880F911D9695879597F9089561
:10082000E1E0660F771F881FBB1F621773078407FD
:10083000BA0720F0621B730B840BBA0BEE1F88F70C
:10084000E09508955BD088F09F5790F0B92F9927D5
:10085000B751A0F0D1F0660F771F881F991F1AF0CB
:10086000BA95C9F712C0B13081F062D0B1E00895F5
:100870005FC0672F782F8827B85F39F0B93FCCF376
:10088000869577956795B395D9F73EF490958095C1
:10089000709561957F4F8F4F9F4F089597F99F6790
:1008A00080E870E060E008959FEF80EC08950024F8
:1008B0000A941616170618060906089500240A94C5
:1008C00012161306140605060895092E0394000C4B
:1008D00011F4882352F0BB0F40F4BF2B11F460FFDA
:1008E00004C06F5F7F4F8F4F9F4F089557FD905803
:1008F000440F551F59F05F3F71F04795880F97FBE4
:10090000991F61F09F3F79F087950895121613069D
:100910001406551FF2CF4695F1DF08C016161706CC
:100920001806991FF1CF8695710561050894089501
:10093000E894BB2766277727CB0197F908950BD05A
:10094000C4CFB5DF28F0BADF18F0952309F0A6CFA1
:10095000ABCF1124EECFCADFA0F3959FD1F3950F53
:1009600050E0551F629FF001729FBB27F00DB11D33
:10097000639FAA27F00DB11DAA1F649F6627B00DC3
:10098000A11D661F829F2227B00DA11D621F739FAC
:10099000B00DA11D621F839FA00D611D221F749FBA
:1009A0003327A00D611D231F849F600D211D822F01
:1009B000762F6A2F11249F5750408AF0E1F0882348
:1009C0004AF0EE0FFF1FBB1F661F771F881F915055
:1009D0005040A9F79E3F510570F060CFAACF5F3F0E
:1009E000ECF3983EDCF3869577956795B795F79588
:1009F000E7959F5FC1F7FE2B880F911D9695879510
:080A000097F90895F894FFCF67
:100A08000D696E697469616C697A696E67207265CF
:100A18006365697665720A0D000D73657420746FDD
:080A28002069646C650A0D00F1
:00000001FF
