:100000000C9434000C9462000C9451000C94510038
:100010000C9451000C9451000C9451000C9451001C
:100020000C9451000C9451000C9451000C9451000C
:100030000C9451000C9451000C9451000C945100FC
:100040000C9451000C9451000C9451000C945100EC
:100050000C9451000C9451000C9451000C945100DC
:100060000C9451000C94510011241FBECFEFD8E026
:10007000DEBFCDBF11E0A0E0B1E0ECEBFBE002C0E1
:1000800005900D92A23DB107D9F722E0A2EDB1E0B3
:1000900001C01D92A636B207E1F70E94CF020C9470
:1000A000DC050C94000052985A9AE9E6F0E0808151
:1000B00081608083E89A7894EBE6F0E08081806844
:1000C000808308951F920F920FB60F9211242F93E1
:1000D0003F934F935F936F937F938F939F93AF93D0
:1000E000BF93EF93FF9386E691E00E94C900809151
:1000F0001A0290E00E94A40180931B02FF91EF91ED
:10010000BF91AF919F918F917F916F915F914F912F
:100110003F912F910F900FBE0F901F901895239A2B
:10012000259A81E58CBD08958EBD0DB407FEFDCFE7
:10013000089580E184B980E48CBD08950DB407FE74
:10014000FDCF8EB508958EBD0DB407FEFDCF8EB5E3
:10015000089590E09093C5008093C400E1ECF0E036
:1001600080818860808386E08093C20008958091BA
:10017000C00087FFFCCF8091C60008959091C00019
:1001800095FFFCCF8093C6008091C00085FFFCCF17
:100190000895CF93DF93EC018991882319F00E9491
:1001A000BE00FACFDF91CF91089584B18C6284B9FB
:1001B00024982A9A8CB5837D8CBD8DB581608DBDC8
:1001C0008CB580618CBD8CB580648CBD80E090E086
:1001D00008958EBD0DB407FEFDCF8EB5FB01808363
:1001E00080E090E008952A9880E090E008952A9AAF
:1001F00080E090E00895FF920F931F93CF93DF93D9
:10020000CDB7DEB7E2970FB6F894DEBF0FBECDBF15
:10021000182FF8940E94F300812F8F770E94A3007B
:1002200080E00E94A300F82E0E94F7001F92FF9228
:100230001F921F9323E731E03F932F931F9282E396
:100240008F938E010F5F1F4F1F930F930E94FD022C
:10025000C8010E94C90078940FB6F894DEBF0FBEA3
:10026000CDBF8F2DE2960FB6F894DEBF0FBECDBF87
:10027000DF91CF911F910F91FF90089584E20E942A
:10028000FB0090E091958195910996958795089549
:100290001F93CF93DF931F92CDB7DEB7182FF8943B
:1002A00069830E94F300812F80680E94A300698106
:1002B000862F0E94A3000E94F70078940F90DF9190
:1002C000CF911F91089590916402891741F1843074
:1002D000B9F018F48823D9F008958C3019F08031E2
:1002E00041F0089581E00E94FB00682F637E6C60FE
:1002F00013C081E00E94FB00682F637E60610CC028
:1003000081E00E94FB00682F637E646005C081E08D
:100310000E94FB00682F637E81E00C9448010895E1
:10032000809164028C3011F080E008958091650224
:100330008111FACF0E943E01863A9F4FACF784E0CC
:100340000E94630181E00895CF93DF93EC0188E27E
:100350000E94FB0098819C3071F4C82FC47082FF0A
:1003600006C082E991E00E94C900C0E005C084E0B7
:100370000E94630101C0C1E08C2FDF91CF910895ED
:100380001F93CF93DF93CDB7DEB7E6970FB6F89400
:10039000DEBF0FBECDBF86E3E0E0F1E0DE011196E7
:1003A00001900D928A95E1F70E94D500892B19F0F2
:1003B00081E090E01DC080E10E94FB008432C1F723
:1003C00010E0FE013196E10FF11DE10FF11D80817A
:1003D0008F3F29F061810E9448011F5FF2CF84E0C6
:1003E0000E94630186EA91E00E94C90080E090E0EB
:1003F000E6960FB6F894DEBF0FBECDBFDF91CF916A
:100400001F910895FC01E05CFF4F1082319610822D
:100410003196108231961082319610823196108278
:1004200031961182108288E20E94FB0082FF08C090
:100430008DE30E94FB00682F64608DE30E944801F9
:1004400060E485E20E94480180E10C946301F89425
:10045000FC01E85BFF4F2081243041F0203111F492
:10046000789402C00E94020280E0089581E008951D
:10047000EF92FF920F931F93CF93DF93C82F062F16
:10048000F72E142F84E00E94630187E20E94FB0094
:1004900087FFFBCF60E085E20E944801113408F03D
:1004A00010E40E94F30080E80E94A30083E0810F23
:1004B0000E94A3008C2F0E94A300E02EC02FDF2DEE
:1004C0008C2F8E19811720F489910E94A300F8CFF8
:1004D0000E94F7008CE00E94630188E20E94FB000A
:1004E00083FFFBCF84E0DF91CF911F910F91FF90AD
:1004F000EF900C9463010F931F93CF93DF93CDB7CD
:10050000DEB769970FB6F894DEBF0FBECDBF8C0182
:10051000F8948CE00E94630187E20E94FB0087FF51
:10052000FBCF0E94F30080E80E94A300F8018081C5
:100530000E94A300F80181810E94A3000E5F1F4F5B
:100540001F930F9386EC91E09F938F931F9289E105
:100550008F938E010F5F1F4F1F930F930E94FD0219
:10056000C8010E94C9000E94F70078948CE00E94A4
:1005700063010FB6F894DEBF0FBECDBF81E00E94CD
:10058000FB008C718430D1F769960FB6F894DEBF0A
:100590000FBECDBFDF91CF911F910F9108950E94A3
:1005A00053008FE290E00E94A90010921202109274
:1005B0001A0210921B020E94C00190931D028093A8
:1005C0001C02009719F486E391E004C0019721F41E
:1005D0008DE491E00E94C90082ED91E00E94270223
:1005E000882321F082ED91E00E94C9008FEF9FE205
:1005F0000197F1F700C00000EFCFAEE0B0E0E3E01C
:10060000F3E00C94B3050D891E898F89988D26E03F
:100610002C831A83098397FF02C080E090E801973A
:100620009E838D83AE01455E5F4F698D7A8DCE01CD
:1006300001960E942D034D815E8157FD0AC02F81D6
:100640003885421753070CF49A01F801E20FF31FA3
:1006500010822E96E4E00C94CF05ACE0B0E0E3E32A
:10066000F3E00C94A5057C016B018A01FC01178263
:100670001682838181FFBDC1CE0101964C01F70135
:100680009381F60193FD859193FF81916F018823FA
:1006900009F4ABC1853239F493FD859193FF8191C3
:1006A0006F01853229F4B70190E00E941505E7CF6C
:1006B000512C312C20E02032A0F48B3269F030F440
:1006C000803259F0833269F420612CC08D3239F0C8
:1006D000803339F4216026C02260246023C0286062
:1006E00021C027FD27C030ED380F3A3078F426FFBF
:1006F00006C0FAE05F9E300D1124532E13C08AE02D
:10070000389E300D1124332E20620CC08E3221F41D
:1007100026FD6BC1206406C08C3611F4206802C02F
:10072000883641F4F60193FD859193FF81916F0125
:100730008111C1CF982F9F7D9554933028F40C5F81
:100740001F4FFFE3F9830DC0833631F0833771F01B
:10075000833509F05BC022C0F801808189830E5F78
:100760001F4F44244394512C540115C03801F2E02A
:100770006F0E711CF801A080B18026FF03C0652DAB
:1007800070E002C06FEF7FEFC5012C870E940A0561
:100790002C0183012C852F77222E17C03801F2E01F
:1007A0006F0E711CF801A080B18026FF03C0652D7B
:1007B00070E002C06FEF7FEFC5012C870E94FF043D
:1007C0002C012C852068222E830123FC1BC0832D45
:1007D00090E048165906B0F4B70180E290E00E941C
:1007E00015053A94F4CFF50127FC859127FE8191F8
:1007F0005F01B70190E00E94150531103A94F1E0D5
:100800004F1A51084114510471F7E5C0843611F0B4
:10081000893639F5F80127FF07C06081718182812F
:1008200093810C5F1F4F08C060817181882777FD1D
:100830008095982F0E5F1F4F2F76B22E97FF09C01D
:1008400090958095709561957F4F8F4F9F4F206851
:10085000B22E2AE030E0A4010E944705A82EA81875
:1008600044C0853729F42F7EB22E2AE030E025C01F
:10087000F22FF97FBF2E8F36C1F018F4883579F04A
:10088000B4C0803719F0883721F0AFC02F2F206116
:10089000B22EB4FE0DC08B2D8460B82E09C024FF8B
:1008A0000AC09F2F9660B92E06C028E030E005C030
:1008B00020E130E002C020E132E0F801B7FE07C0DD
:1008C00060817181828193810C5F1F4F06C06081BE
:1008D000718180E090E00E5F1F4FA4010E944705E8
:1008E000A82EA818FB2DFF77BF2EB6FE0BC02B2D10
:1008F0002E7FA51450F4B4FE0AC0B2FC08C02B2D04
:100900002E7E05C07A2C2B2D03C07A2C01C0752CAD
:1009100024FF0DC0FE01EA0DF11D8081803311F42A
:10092000297E09C022FF06C07394739404C0822FED
:10093000867809F0739423FD13C020FF06C05A2C5B
:10094000731418F4530C5718732C731468F4B7010C
:1009500080E290E02C870E94150573942C85F5CFDA
:10096000731410F4371801C0312C24FF12C0B701E2
:1009700080E390E02C870E9415052C8522FF17C08C
:1009800021FF03C088E590E002C088E790E0B7014E
:100990000CC0822F867859F021FD02C080E201C090
:1009A0008BE227FD8DE2B70190E00E941505A514AA
:1009B00038F4B70180E390E00E9415055A94F7CF10
:1009C000AA94F401EA0DF11D8081B70190E00E9424
:1009D0001505A110F5CF332009F451CEB70180E2FF
:1009E00090E00E9415053A94F6CFF7018681978131
:1009F00002C08FEF9FEF2C96E2E10C94C105FC0141
:100A00000590615070400110D8F7809590958E0F39
:100A10009F1F0895FC016150704001900110D8F7AC
:100A2000809590958E0F9F1F08950F931F93CF93DE
:100A3000DF93182F092FEB018B8181FD03C08FEF0E
:100A40009FEF20C082FF10C04E815F812C813D81CD
:100A5000421753077CF4E881F9819F012F5F3F4FD4
:100A600039832883108306C0E885F985812F09958D
:100A7000892B29F72E813F812F5F3F4F3F832E83A4
:100A8000812F902FDF91CF911F910F910895FA013F
:100A9000AA27283051F1203181F1E8946F936E7FBD
:100AA0006E5F7F4F8F4F9F4FAF4FB1E03ED0B4E0AE
:100AB0003CD0670F781F891F9A1FA11D680F791FEF
:100AC0008A1F911DA11D6A0F711D811D911DA11D00
:100AD00020D009F468943F912AE0269F1124301910
:100AE000305D3193DEF6CF010895462F4770405DAB
:100AF0004193B3E00FD0C9F7F6CF462F4F70405D5A
:100B00004A3318F0495D31FD4052419302D0A9F7B4
:100B1000EACFB4E0A6959795879577956795BA95AE
:100B2000C9F700976105710508959B01AC010A2E74
:100B300006945795479537952795BA95C9F7620F4B
:100B4000731F841F951FA01D08952F923F924F92EF
:100B50005F926F927F928F929F92AF92BF92CF924D
:100B6000DF92EF92FF920F931F93CF93DF93CDB756
:100B7000DEB7CA1BDB0B0FB6F894DEBF0FBECDBFCE
:100B800009942A88398848885F846E847D848C849F
:100B90009B84AA84B984C884DF80EE80FD800C81A8
:100BA0001B81AA81B981CE0FD11D0FB6F894DEBF8B
:0C0BB0000FBECDBFED010895F894FFCFFB
:100BBC0001100200033E0480050006C507E408C0CE
:100BCC0009120B00119F1203131A180019421E0C64
:100BDC00254026072E882F2D30AA379038403C858B
:100BEC003D126F30FF000D52464D36392073746143
:100BFC00727420737563636573730A0D000D52462E
:100C0C004D3639206661696C656420746F2073748D
:100C1C006172740A0D000D696E7465727275707470
:100C2C000A0D000D52656164203078253032582051
:100C3C00616E642072656376203078253032580AF4
:100C4C000D000D7061636B657473206172652073A8
:100C5C00656E740D0A000D52464D363920697320AD
:100C6C006E6F7720696E207374616E646279206D8B
:100C7C006F64650A0D000D73656E742025730A0D83
:020C8C00000066
:00000001FF
