:100000000C9434000C9449000C9449000C94490061
:100010000C9449000C9449000C9449000C9449003C
:100020000C9449000C9449000C9449000C9449002C
:100030000C9449000C9449000C9449000C9449001C
:100040000C9449000C9449000C9449000C9449000C
:100050000C9449000C9449000C9449000C944900FC
:100060000C9449000C94490011241FBECFEFD8E036
:10007000DEBFCDBF11E0A0E0B1E0ECE2F1E002C0F4
:1000800005900D92AA30B107D9F70E9477000C9421
:1000900094000C94000090E09093C5008093C400FD
:1000A000E1ECF0E080818860808386E08093C2008C
:1000B00008958091C00087FFFCCF8091C60008950D
:1000C0009091C00095FFFCCF8093C6008091C00046
:1000D00085FFFCCF0895CF93DF93EC0189918823AE
:1000E00019F00E946000FACFDF91CF910895CF936D
:1000F000DF93CDB7DEB72A970FB6F894DEBF0FBEF9
:10010000CDBF219A2A9A8FE20E944B008AE0E0E05C
:10011000F1E0DE01119601900D928A95E1F7CE0192
:0C01200001960E946B00FFCFF894FFCF07
:0A012C000D0A68656C6C6F0A0D0087
:00000001FF
