:100000000C9434000C9449000C9449000C94490061
:100010000C9449000C9449000C9449000C9449003C
:100020000C9449000C9449000C9449000C9449002C
:100030000C9449000C9449000C9449000C9449001C
:100040000C9449000C9449000C9449000C9449000C
:100050000C9449000C9449000C9449000C944900FC
:100060000C9449000C94490011241FBECFEFD8E036
:10007000DEBFCDBF11E0A0E0B1E0E8E8F1E002C0F2
:1000800005900D92A632B107D9F70E94AC000C94EE
:10009000C2000C94000090E09093C5008093C400CF
:1000A000E1ECF0E080818860808386E08093C2008C
:1000B00008958091C00087FFFCCF8091C60008950D
:1000C0009091C00095FFFCCF8093C6000895CF9318
:1000D000DF93EC018991882319F00E946000FACF28
:1000E000DF91CF9108952FEF8FE797E02150804067
:1000F0009040E1F700C000002FEF8FE797E021501C
:1001000080409040E1F700C000008EEF0E94600048
:1001100088E50C946000EF92FF921F93CF93DF93DA
:100120001F92CDB7DEB7182F7A018EEF69830E9438
:10013000600087E40E946000812F0E946000698156
:10014000862F0E946000C7010F90DF91CF911F9111
:10015000FF90EF900C9467008FE10E944B000E948B
:10016000730041E151E061E070E081E090E00E94C5
:100170008B0040E051E062E070E083E090E00E949C
:080180008B00FFCFF894FFCFC4
:100188003E3E205553432045453435394C203C3CB0
:10019800003132333435363738393031323334354B
:0601A80036373839300043
:00000001FF
