:100000000C9434000C9449000C9449000C94490061
:100010000C9449000C9449000C9449000C9449003C
:100020000C9449000C9449000C9449000C9449002C
:100030000C9449000C9449000C9449000C9449001C
:100040000C9449000C9449000C9449000C9449000C
:100050000C9449000C9449000C9449000C944900FC
:100060000C9449000C94490011241FBECFEFD8E036
:10007000DEBFCDBF11E0A0E0B1E0EEE6F1E002C0EE
:1000800005900D92A033B107D9F70E94A0000C94FF
:10009000B5000C94000090E09093C5008093C400DC
:1000A000E1ECF0E080818860808386E08093C2008C
:1000B00008958091C00087FFFCCF8091C60008950D
:1000C0009091C00095FFFCCF8093C6000895CF9318
:1000D000DF93EC018991882319F00E946000FACF28
:1000E000DF91CF9108958EEF0E94600081E40E941D
:1000F00060008FEF9FE50197F1F700C000008EEFE1
:100100000E94600081E50E9460008FEF9FE50197EB
:10011000F1F700C0000008951F93CF93DF93182FCD
:10012000EB018EEF0E94600085E40E946000812F49
:100130000E946000CE01DF91CF911F910C94670067
:100140008FE20E944B000E9473006DE171E080E03D
:100150000E948C006CE071E080E40E948C0060E002
:0E01600071E084E10E948C00FFCFF894FFCF85
:10016E006D65206C612070656C6173003E3E20559C
:10017E0053432045453435394C203C3C0031323315
:10018E00343536373839303132333435363700007E
:00000001FF
