:100000000C9434000C9462000C9451000C94510038
:100010000C9451000C9451000C9451000C9451001C
:100020000C9451000C9451000C9451000C9451000C
:100030000C9451000C9451000C9451000C945100FC
:100040000C9451000C9451000C9451000C945100EC
:100050000C9451000C9451000C9451000C945100DC
:100060000C9451000C94510011241FBECFEFD8E026
:10007000DEBFCDBF11E0A0E0B1E0EEE1FAE002C0EA
:1000800005900D92AE35B107D9F721E0AEE5B1E0AC
:1000900001C01D92AB3AB207E1F70E94D2010C9465
:1000A0000D050C94000052985A9AE9E6F0E0808120
:1000B00081608083E89A7894EBE6F0E08081806844
:1000C000808308951F920F920FB60F9211242F93E1
:1000D0003F934F935F936F937F938F939F93AF93D0
:1000E000BF93EF93FF9382E491E00E94C200FF91DF
:1000F000EF91BF91AF919F918F917F916F915F91A0
:100100004F913F912F910F900FBE0F901F90189518
:10011000239A259A81E58CBD08958EBD0DB407FE06
:10012000FDCF089580E184B980E48CBD08950DB4BD
:1001300007FEFDCF8EB508958EBD0DB407FEFDCF31
:100140008EB5089590E09093C5008093C400E1ECD3
:10015000F0E080818860808386E08093C20008950B
:100160008091C00087FFFCCF8091C60008959091D8
:10017000C00095FFFCCF8093C6008091C00085FF32
:10018000FCCF0895CF93DF93EC018991882319F078
:100190000E94B700FACFDF91CF91089584B18C62AD
:1001A00084B924982A9A8CB5837D8CBD8DB58160E5
:1001B0008DBD8CB580618CBD8CB580648CBD80E0BC
:1001C00090E008958EBD0DB407FEFDCF8EB5FB0106
:1001D000808380E090E008952A9880E090E0089580
:1001E0002A9A80E090E00895CF93C82FF8940E9457
:1001F000EC008C2F8F770E949C0080E00E949C0076
:10020000C82F0E94F00078948C2FCF9108951F93EF
:10021000CF93DF931F92CDB7DEB7182FF894698381
:100220000E94EC00812F80680E949C006981862FCB
:100230000E949C000E94F00078940F90DF91CF9173
:100240001F910895CF93DF93CDB7DEB761968FAD41
:1002500061972E969FAD2E97891741F18430D9F082
:1002600040F4811123C081E00E94F400682F637E76
:1002700018C08C3049F08031C9F481E00E94F4004C
:10028000682F637E60610DC081E00E94F400682FDA
:10029000637E6C6006C081E00E94F400682F637E7C
:1002A000646081E0DF91CF910C940701DF91CF91E1
:1002B00008950F931F93CF93DF93CDB7DEB7C45547
:1002C000D1090FB6F894DEBF0FBECDBF86E3E0E0E4
:1002D000F1E0DE01119601900D928A95E1F70E94FE
:1002E000CE00892B19F081E090E050C080E10E949F
:1002F000F4008432C1F710E0FE013196E10FF11DE8
:10030000E10FF11D80818F3F29F061810E9407017B
:100310001F5FF2CF84E08F938DB79EB78B54910906
:100320000FB6F8949EBF0FBE8DBFADB7BEB7119686
:100330008BE4FE01E55AFF4F01900D928A95E1F79B
:100340000E9422010FB6F894DEBF0FBECDBFCD557F
:10035000DF4F8881C35AD0401F928F938FE491E082
:100360009F938F931F928EE18F938E01095C1F4F95
:100370001F930F930E942E02C8010E94C2000FB665
:10038000F894DEBF0FBECDBF80E090E0CC5ADF4FC7
:100390000FB6F894DEBF0FBECDBFDF91CF911F9196
:1003A0000F910895CF93DF93CDB7DEB7E2970FB6E5
:1003B000F894DEBF0FBECDBF0E9453008FE290E0E5
:1003C0000E94A20010929E011092A6011092A70115
:1003D00087E78F938DB79EB78B5491090FB6F8942A
:1003E0009EBF0FBE8DBFADB7BEB711968BE4EEE5D5
:1003F000F1E001900D928A95E1F70E9459019093E6
:10040000AA018093A9010FB6F894DEBF0FBECDBF3D
:100410008091A6011F928F9386E391E09F938F9323
:100420001F9282E38F938E010F5F1F4F1F930F93D5
:100430000E942E02C8010E94C20089E999E001973A
:10044000F1F700C00FB6F894DEBF0FBECDBF8FEF3F
:100450009FE20197F1F700C00000F9CFAEE0B0E0F5
:10046000E4E3F2E00C94E4040D891E898F89988DF1
:1004700026E02C831A83098397FF02C080E090E86E
:1004800001979E838D83AE01455E5F4F698D7A8DA6
:10049000CE0101960E945E024D815E8157FD0AC029
:1004A0002F813885421753070CF49A01F801E20FA7
:1004B000F31F10822E96E4E00C940005ACE0B0E04F
:1004C000E4E6F2E00C94D6047C016B018A01FC01A5
:1004D00017821682838181FFBDC1CE0101964C0136
:1004E000F7019381F60193FD859193FF81916F014F
:1004F000882309F4ABC1853239F493FD859193FFCC
:1005000081916F01853229F4B70190E00E94460481
:10051000E7CF512C312C20E02032A0F48B3269F04F
:1005200030F4803259F0833269F420612CC08D326E
:1005300039F0803339F4216026C02260246023C062
:10054000286021C027FD27C030ED380F3A3078F4FD
:1005500026FF06C0FAE05F9E300D1124532E13C013
:100560008AE0389E300D1124332E20620CC08E326A
:1005700021F426FD6BC1206406C08C3611F420687E
:1005800002C0883641F4F60193FD859193FF819175
:100590006F018111C1CF982F9F7D9554933028F41E
:1005A0000C5F1F4FFFE3F9830DC0833631F08337B3
:1005B00071F0833509F05BC022C0F8018081898326
:1005C0000E5F1F4F44244394512C540115C0380131
:1005D000F2E06F0E711CF801A080B18026FF03C00D
:1005E000652D70E002C06FEF7FEFC5012C870E9480
:1005F0003B042C0183012C852F77222E17C0380154
:10060000F2E06F0E711CF801A080B18026FF03C0DC
:10061000652D70E002C06FEF7FEFC5012C870E944F
:1006200030042C012C852068222E830123FC1BC062
:10063000832D90E048165906B0F4B70180E290E0AF
:100640000E9446043A94F4CFF50127FC859127FED9
:1006500081915F01B70190E00E94460431103A9405
:10066000F1E04F1A51084114510471F7E5C0843686
:1006700011F0893639F5F80127FF07C060817181D3
:10068000828193810C5F1F4F08C060817181882730
:1006900077FD8095982F0E5F1F4F2F76B22E97FF14
:1006A00009C090958095709561957F4F8F4F9F4FB2
:1006B0002068B22E2AE030E0A4010E947804A82E1F
:1006C000A81844C0853729F42F7EB22E2AE030E0E6
:1006D00025C0F22FF97FBF2E8F36C1F018F4883570
:1006E00079F0B4C0803719F0883721F0AFC02F2FD0
:1006F0002061B22EB4FE0DC08B2D8460B82E09C0CF
:1007000024FF0AC09F2F9660B92E06C028E030E073
:1007100005C020E130E002C020E132E0F801B7FE80
:1007200007C060817181828193810C5F1F4F06C079
:100730006081718180E090E00E5F1F4FA4010E94F4
:100740007804A82EA818FB2DFF77BF2EB6FE0BC08D
:100750002B2D2E7FA51450F4B4FE0AC0B2FC08C0A5
:100760002B2D2E7E05C07A2C2B2D03C07A2C01C098
:10077000752C24FF0DC0FE01EA0DF11D8081803330
:1007800011F4297E09C022FF06C07394739404C03B
:10079000822F867809F0739423FD13C020FF06C0D2
:1007A0005A2C731418F4530C5718732C731468F4E0
:1007B000B70180E290E02C870E94460473942C8558
:1007C000F5CF731410F4371801C0312C24FF12C078
:1007D000B70180E390E02C870E9446042C8522FF1D
:1007E00017C021FF03C088E590E002C088E790E0D1
:1007F000B7010CC0822F867859F021FD02C080E23B
:1008000001C08BE227FD8DE2B70190E00E94460413
:10081000A51438F4B70180E390E00E9446045A948E
:10082000F7CFAA94F401EA0DF11D8081B70190E0A1
:100830000E944604A110F5CF332009F451CEB70130
:1008400080E290E00E9446043A94F6CFF701868158
:10085000978102C08FEF9FEF2C96E2E10C94F20497
:10086000FC010590615070400110D8F7809590957B
:100870008E0F9F1F0895FC01615070400190011080
:10088000D8F7809590958E0F9F1F08950F931F9313
:10089000CF93DF93182F092FEB018B8181FD03C0CC
:1008A0008FEF9FEF20C082FF10C04E815F812C81AF
:1008B0003D81421753077CF4E881F9819F012F5F46
:1008C0003F4F39832883108306C0E885F985812F3F
:1008D0000995892B29F72E813F812F5F3F4F3F8359
:1008E0002E83812F902FDF91CF911F910F9108952B
:1008F000FA01AA27283051F1203181F1E8946F9351
:100900006E7F6E5F7F4F8F4F9F4FAF4FB1E03ED0F6
:10091000B4E03CD0670F781F891F9A1FA11D680F94
:10092000791F8A1F911DA11D6A0F711D811D911DC7
:10093000A11D20D009F468943F912AE0269F11243C
:100940003019305D3193DEF6CF010895462F4770A0
:10095000405D4193B3E00FD0C9F7F6CF462F4F70FB
:10096000405D4A3318F0495D31FD4052419302D059
:10097000A9F7EACFB4E0A6959795879577956795FF
:10098000BA95C9F700976105710508959B01AC01FF
:100990000A2E06945795479537952795BA95C9F726
:1009A000620F731F841F951FA01D08952F923F9201
:1009B0004F925F926F927F928F929F92AF92BF926F
:1009C000CF92DF92EF92FF920F931F93CF93DF931B
:1009D000CDB7DEB7CA1BDB0B0FB6F894DEBF0FBE78
:1009E000CDBF09942A88398848885F846E847D84C5
:1009F0008C849B84AA84B984C884DF80EE80FD80C7
:100A00000C811B81AA81B981CE0FD11D0FB6F8943C
:0E0A1000DEBF0FBECDBFED010895F894FFCFFD
:100A1E0001100200033E0480050006C507E408C06D
:100A2E0009120B00119F1203131A180019421E0C03
:100A3E00254026072E882F2D30AA379038403C852A
:100A4E003D126F30FF006D6F6465203078253032B7
:100A5E0058000D696E746572727570740A0D000D12
:0E0A6E00307825303258206D6F64650A0D0017
:00000001FF
