:100000000C9434000C9449000C9449000C94490061
:100010000C9449000C9449000C9449000C9449003C
:100020000C9449000C9449000C9449000C9449002C
:100030000C9449000C9449000C9449000C9449001C
:100040000C9449000C9449000C9449000C9449000C
:100050000C9449000C9449000C9449000C944900FC
:100060000C9449000C94490011241FBECFEFD8E036
:10007000DEBFCDBF11E0A0E0B1E0EEE5FDE002C0E3
:1000800005900D92AA33B107D9F70E94EA030C94A8
:10009000AD060C9400008AE28093B8001092B9007B
:1000A00008951092BC0094EA9093BC009091BC001B
:1000B00097FFFCCF9091B900987F983011F081E0C4
:1000C00008958093BB0084E88093BC008091BC00BD
:1000D00087FFFCCF8091B900887F883111F0803490
:1000E00071F780E008958093BB0084E88093BC00A2
:1000F0008091BC0087FFFCCF9091B900987F81E090
:10010000983209F480E0089584E98093BC00089552
:1001100084EC8093BC008091BC0087FFFCCF809171
:10012000BB00089584E88093BC008091BC0087FFE9
:10013000FCCF8091BB000895CF92DF92EF92FF92A7
:100140000F931F934115510521F40115110509F471
:10015000A0C094EA9093BC009091BC0097FFFCCFA4
:100160009091B900987F983009F068C0982F9E7FD1
:100170009093BB0094E89093BC009091BC0097FFD3
:10018000FCCF9091B900987F983121F0903209F01E
:1001900055C051C0FB01460F571F64E8E417F5072F
:1001A00091F091919093BB006093BC009091BC0042
:1001B00097FFFCCF9091B900987F983279F39033F4
:1001C000E9F590E338C0F901020F131F24E8E017A6
:1001D000F10779F091919093BB002093BC0090912E
:1001E000BC0097FFFCCF9091B900987F983279F3CB
:1001F000E6CFC114D10409F44AC020E194EA9093F7
:10020000BC009091BC0097FFFCCF9091B900987F03
:10021000921314C081608093BB0084E88093BC007B
:100220008091BC0087FFFCCF9091B900987F9034FB
:1002300039F0983419F484E98093BC00892F2FC0D9
:10024000F70184EC91E0C916D10491F08093BC00D1
:100250009091BC0097FFFCCF9091B900987F21E06E
:10026000C21AD108903551F79091BB009193EACF13
:1002700084E88093BC008091BC0087FFFCCF909104
:10028000B900987F9835D1F68091BB00808390E0CB
:10029000D2CFC114D10411F028E0B0CF80E01F917B
:1002A0000F91FF90EF90DF90CF900895CF93DF9361
:1002B00000D0CDB7DEB74A8369830E9451006981BF
:1002C000862F0E9473004A81842F0E9473000F9032
:1002D0000F90DF91CF910C9484000E944B0048EB6B
:1002E00066E280EC0E94560147E063E180EC0C94EA
:1002F0005601CF92DF92EF92FF920F931F93680106
:10030000790100E010E020E030E00E949C001F91A5
:100310000F91FF90EF90DF90CF9008950F931F9370
:10032000CF93DF93CDB7DEB728970FB6F894DEBF33
:100330000FBECDBF49E366E280EC0E9456011F82EA
:10034000888583FD14C001E010E09E01285F3F4FC7
:1003500041E050E0BE01695F7F4F80EC0E9479016F
:100360008FEF9FE50197F1F700C00000E9CF81E032
:100370008D8301E010E09E012A5F3F4F41E050E095
:10038000BE016B5F7F4F80EC0E94790182E08B831E
:100390009E012C5F3F4F41E050E0BE016D5F7F4FFB
:1003A00080EC0E94790183E089839E012E5F3F4F9C
:1003B00041E050E0BE016F5F7F4F80EC0E94790109
:1003C0006E81862F90E0A0E0B0E0BA2FA92F982F81
:1003D00088272C81822B6627782F892F9A2F2A81B4
:1003E000622B44E096958795779567954A95D1F766
:1003F0000E94580520E030E040E85EE30E940A06D3
:1004000028960FB6F894DEBF0FBECDBFDF91CF9117
:100410001F910F9108950F931F93CF93DF93CDB743
:10042000DEB728970FB6F894DEBF0FBECDBF49EBFD
:1004300066E280EC0E9456011F82888583FD14C00D
:1004400001E010E09E01285F3F4F41E050E0BE0117
:10045000695F7F4F80EC0E9479018FEF9FE50197E4
:10046000F1F700C00000E9CF81E08D8301E010E0EA
:100470009E012A5F3F4F41E050E0BE016B5F7F4F1E
:1004800080EC0E94790182E08B839E012C5F3F4FBC
:1004900041E050E0BE016D5F7F4F80EC0E9479012A
:1004A00083E089839E012E5F3F4F41E050E0BE0113
:1004B0006F5F7F4F80EC0E9479016E81862F90E004
:1004C000A0E0B0E0BA2FA92F982F88272C81822B8B
:1004D0006627782F892F9A2F2A81622BE4E0959541
:1004E000879577956795EA95D1F783FF02C0806F6E
:1004F0009F6F0E945A0520E030E040E85DE30E94D3
:100500000A0620E030E040EA51E40E9457042896B1
:100510000FB6F894DEBF0FBECDBFDF91CF911F9114
:100520000F9108950F931F93CF93DF9300D000D0C6
:1005300000D0CDB7DEB749EB66E280EC0E945601F1
:100540001D828E8183FD14C001E010E09E012A5FB0
:100550003F4F41E050E0BE016B5F7F4F80EC0E9457
:1005600079018FEF9FE50197F1F700C00000E9CF17
:1005700084E08B8301E010E09E012C5F3F4F41E05F
:1005800050E0BE016D5F7F4F80EC0E94790185E0F5
:1005900089839E012E5F3F4F41E050E0BE016F5FB7
:1005A0007F4F80EC0E9479016C8170E0762F662786
:1005B0008A81682BA4E075956795AA95E1F788274D
:1005C00077FD8095982F0E945A0520E030E040E8A2
:1005D0005DE30E940A0626960FB6F894DEBF0FBEB2
:1005E000CDBFDF91CF911F910F91089590E090932F
:1005F000C5008093C400E1ECF0E0808188608083D6
:1006000086E08093C20008959091C00095FFFCCFD2
:100610008093C6000895CF93DF93EC0189918823DE
:1006200019F00E940403FACFDF91CF9108959093BF
:10063000C5008093C400E1ECF0E080818860808395
:1006400080818061808386E08093C20008959091CC
:10065000C00095FFFCCF8093C60008958091C00034
:1006600087FFFCCF8091C60008951F93CF93DF933F
:10067000EC0110E0812F992787FD9095FE010190F4
:100680000020E9F73197EC1BFD0BE817F90740F064
:10069000FE01E80FF91F80810E9427031F5FEACF48
:1006A0008DE00E9427038AE0DF91CF911F910C9487
:1006B00027033F924F925F926F927F928F929F9209
:1006C000AF92BF92CF92DF92EF92FF920F931F9360
:1006D000CF93DF93EC012A013B01B22ECB01BA018B
:1006E0000E9427056B017C018B014AE050E0BE01AE
:1006F000C6010E946D0620E030E0A901C301B201ED
:100700000E94BB0487FF08C077FA709477F8709452
:10071000002711270C191D09FE0101900020E9F79F
:100720003197EC1BFD0B332433943E0E8E2E99240F
:1007300087FC9094FE01E80DF91D8EE28083E12C88
:10074000F12C8B0C911CB7FC9A94C32CCE0CDD249D
:10075000C7FCD094BFEFEB1AFB0A8C149D0444F144
:10076000B801882777FD8095982F0E945A059B0134
:10077000AC01C301B2010E94560420E030E040E227
:1007800051E40E940A062B013C010E942705DC016E
:10079000CB018C014AE050E0A12CB12CB5010E94A4
:1007A0006D06FE01EC0DFD1DD5018C918083CDCF32
:1007B000DF91CF911F910F91FF90EF90DF90CF903D
:1007C000BF90AF909F908F907F906F905F904F9071
:1007D0003F900895CF93DF93CDB7DEB7C659D109C7
:1007E0000FB6F894DEBF0FBECDBF8FE20E94F602B7
:1007F0000E946D012FEF8FEF92E0215080409040DA
:10080000E1F700C000C00E948E0120E030E143E526
:1008100055E40E94BF04AB01BC0122E0CE018B591C
:100820009F4F0E94590380E091E00E940B03CE018C
:100830008B599F4F0E940B038DE091E00E940B03A8
:100840000E940B02AB01BC0122E0CE01C3960E94C4
:10085000590388E191E00E940B03CE01C3960E94E8
:100860000B0385E291E00E940B030E949202AB0110
:10087000BC0122E0CE0101960E9459038DE291E075
:100880000E940B03CE0101960E940B0386E391E0C8
:100890000E940B0380E090E0CA56DF4F0FB6F89439
:1008A000DEBF0FBECDBFDF91CF9108955058BB275B
:1008B000AA270ED075C166D130F06BD120F031F48B
:1008C0009F3F11F41EF45BC10EF4E095E7FB51C1AC
:1008D000E92F77D180F3BA1762077307840795076A
:1008E00018F071F49EF58FC10EF4E0950B2EBA2F1F
:1008F000A02D0B01B90190010C01CA01A001112426
:10090000FF27591B99F0593F50F4503E68F11A16D1
:10091000F040A22F232F342F4427585FF3CF469562
:1009200037952795A795F0405395C9F77EF41F1684
:10093000BA0B620B730B840BBAF09150A1F0FF0F4E
:10094000BB1F661F771F881FC2F70EC0BA0F621F3A
:10095000731F841F48F4879577956795B795F7952A
:100960009E3F08F0B3CF9395880F08F09927EE0FBC
:10097000979587950895D9D008F481E008950CD013
:100980000FC107D140F0FED030F021F45F3F19F0E5
:10099000F0C0511139C1F3C014D198F39923C9F3B0
:1009A0005523B1F3951B550BBB27AA276217730775
:1009B000840738F09F5F5F4F220F331F441FAA1F29
:1009C000A9F333D00E2E3AF0E0E830D091505040E9
:1009D000E695001CCAF729D0FE2F27D0660F771F97
:1009E000881FBB1F261737074807AB07B0E809F079
:1009F000BB0B802DBF01FF2793585F4F2AF09E3F0E
:100A0000510568F0B6C000C15F3FECF3983EDCF3DF
:100A1000869577956795B795F7959F5FC9F7880F86
:100A2000911D9695879597F90895E1E0660F771FD8
:100A3000881FBB1F621773078407BA0720F0621B69
:100A4000730B840BBA0BEE1F88F7E095089504D062
:100A50006894B111D9C00895BCD088F09F5790F028
:100A6000B92F9927B751A0F0D1F0660F771F881FD3
:100A7000991F1AF0BA95C9F712C0B13081F0C3D0EE
:100A8000B1E00895C0C0672F782F8827B85F39F08C
:100A9000B93FCCF3869577956795B395D9F73EF432
:100AA00090958095709561957F4F8F4F9F4F0895DA
:100AB000E89409C097FB3EF49095809570956195F8
:100AC0007F4F8F4F9F4F9923A9F0F92F96E9BB27AE
:100AD0009395F695879577956795B795F111F8CF2A
:100AE000FAF4BB0F11F460FF1BC06F5F7F4F8F4F95
:100AF0009F4F16C0882311F096E911C0772321F08B
:100B00009EE8872F762F05C0662371F096E8862F22
:100B100070E060E02AF09A95660F771F881FDAF779
:100B2000880F9695879597F90895990F0008550FA6
:100B3000AA0BE0E8FEEF16161706E807F907C0F063
:100B400012161306E407F50798F0621B730B840B6B
:100B5000950B39F40A2661F0232B242B252B21F445
:100B600008950A2609F4A140A6958FEF811D811DE5
:100B7000089597F99F6780E870E060E008959FEF1F
:100B800080EC089500240A94161617061806090624
:100B9000089500240A9412161306140605060895F3
:100BA000092E0394000C11F4882352F0BB0F40F47B
:100BB000BF2B11F460FF04C06F5F7F4F8F4F9F4FBB
:100BC000089557FD9058440F551F59F05F3F71F03D
:100BD0004795880F97FB991F61F09F3F79F08795A4
:100BE0000895121613061406551FF2CF4695F1DF2D
:100BF00008C0161617061806991FF1CF86957105BD
:100C0000610508940895E894BB2766277727CB01F0
:100C100097F908950BD0C4CFB5DF28F0BADF18F0EC
:100C2000952309F0A6CFABCF1124EECFCADFA0F3F6
:100C3000959FD1F3950F50E0551F629FF001729F71
:100C4000BB27F00DB11D639FAA27F00DB11DAA1F90
:100C5000649F6627B00DA11D661F829F2227B00DDD
:100C6000A11D621F739FB00DA11D621F839FA00D68
:100C7000611D221F749F3327A00D611D231F849FB8
:100C8000600D211D822F762F6A2F11249F5750400F
:100C90008AF0E1F088234AF0EE0FFF1FBB1F661FAA
:100CA000771F881F91505040A9F79E3F510570F063
:100CB00060CFAACF5F3FECF3983EDCF38695779543
:100CC0006795B795F795E7959F5FC1F7FE2B880F5E
:100CD000911D9695879597F908954532510520F411
:100CE000423010F00C947806FB011082CB0108957D
:100CF000BB274A3031F4992322F4BDE290958195C7
:100D00009F4F0C948406BB27FB015527AA27880F09
:100D1000991FAA1FA41710F0A41B83955051B9F76F
:100D2000A05DAA3308F0A95DA193009779F7B111EE
:100D3000B1931192CB010C949D06DC01FC01672F4D
:100D400071917723E1F7329704C07C916D937083A2
:0E0D50006291AE17BF07C8F30895F894FFCF65
:100D5E000D0A50726573737572653A200020496EE4
:100D6E0063686573204847000D0A416C7469747599
:100D7E0064653A2000204D6574657273000D0A5447
:0A0D8E00656D703A2000204300005C
:00000001FF
