:100000000C9434000C94C4000C9451000C945100D6
:100010000C9451000C9451000C9451000C9451001C
:100020000C9451000C9451000C9451000C9451000C
:100030000C9451000C9451000C9451000C945100FC
:100040000C9451000C9451000C9451000C945100EC
:100050000C9451000C9451000C9451000C945100DC
:100060000C9451000C94510011241FBECFEFD8E026
:10007000DEBFCDBF11E0A0E0B1E0E8EAFAE002C0E7
:1000800005900D92AE31B107D9F721E0AEE1B1E0B4
:1000900001C01D92AF35B207E1F70E949D030C9499
:1000A00052050C94000090E09093C5008093C4002A
:1000B000E1ECF0E080818860808386E08093C2007C
:1000C00008958091C00087FFFCCF8091C6000895FD
:1000D0009091C00095FFFCCF8093C6000895CF9308
:1000E000DF93EC018991882319F00E946800FACF10
:1000F000DF91CF9108958EEF0E94680081E40E9405
:1001000068008FEF9FE50197F1F700C000008EEFC8
:100110000E94680081E50E9468008FEF9FE50197CB
:10012000F1F700C0000008958EEF0E94680081E59D
:100130000E9468008FEF9FE50197F1F700C0000073
:1001400008951F93CF93DF93182FEB018EEF0E943A
:10015000680085E40E946800812F0E946800CE013B
:10016000DF91CF911F910C946F0052985A9AE9E653
:10017000F0E0808183608083E89A7894EBE6F0E099
:1001800080818068808308951F920F920FB60F922E
:1001900011242F933F934F935F936F937F938F938C
:1001A0009F93AF93BF93EF93FF938FE191E09F9362
:1001B0008F938DB79EB7815491090FB6F8949EBF67
:1001C0000FBE8DBFADB7BEB7119681E4EEE1F1E091
:1001D00001900D928A95E1F70E945D0380935D0185
:1001E0008DB79EB78D5B9F4F0FB6F8949EBF0FBE25
:1001F0008DBFFF91EF91BF91AF919F918F917F91B3
:100200006F915F914F913F912F910F900FBE0F9083
:100210001F901895FC0120812EBD61507109611558
:10022000710531F0FC0121810DB407FEFDCFF4CF43
:100230000DB407FEFDCF0895F89484B18C6084B9A5
:1002400081E58CBD7894089584B18C6284B924983A
:100250002A9A8CB5837D8CBD8DB581608DBD8CB5A2
:1002600080618CBD8CB580648CBD08958EBD0DB44D
:1002700007FEFDCF8EB50895FC0161157105B1F043
:1002800080818EBD615071096115710551F08181C8
:100290000DB407FEFDCF9EB58EBD8081890F808392
:1002A000F1CF0DB407FEFDCF8EB5808308956115A3
:1002B000710511F00C940A0108952A9808952A9A5C
:1002C00008958EBD0DB407FEFDCF089580E184B979
:1002D00080E48CBD08950DB407FEFDCF8EB5089562
:1002E0000E942401F8948CB5837F8CBD8CB58F7DE2
:1002F0008CBD8CB58C7F8CBD8DB58E7F8DBD78947B
:100300000895CF93DF9300D000D0CDB7DEB7F89437
:100310006C838B830E945D018B81806889836C81F3
:100320006A8362E070E0CE0101960E940A010E9499
:100330005F0178940F900F900F900F90DF91CF9105
:100340000895F894219A2A988F770E94360180E0C8
:100350000E9436012A9A78940895CF93DF93EC0196
:1003600068818FE20E948101698180E3DF91CF91F2
:100370000C948101CF93C82F692F8CE20E948101D8
:100380006C2F8DE2CF910C948101CF92DF92EF928E
:10039000FF9220E034E244E759E40E94EF0420E0B9
:1003A00034E244E752E40E940A040E9472046B01A2
:1003B0007C01B7018827992787E00E94810199274E
:1003C0008F2D7E2D6D2D88E00E9481016C2D89E09E
:1003D000FF90EF90DF90CF900C948101CF93DF934B
:1003E00000D0CDB7DEB7389A419A2FEF8FEF92E069
:1003F000215080409040E1F700C000C041982FEFAD
:100400008FEF92E0215080409040E1F700C000C0A3
:100410006FE88CE30E94810160E38FE60E94810116
:1004200065E58AE50E94810160E78CE50E94810113
:100430008DE789838DE88A83CE0101960E94AD0104
:1004400084E090E00E94BA0160E070E089ED93E4FE
:100450000E94C5010F900F90DF91CF910895CF9327
:10046000C82F81E00E94A101682F637ECC716C2BA4
:1004700081E0CF910C948101CF93C82F80320CF092
:10048000CFE181E10E94A101807E6C2FC7FD6F5FEB
:100490006595682B81E1CF910C948101CF93C82F92
:1004A000882311F06FE001C06AE183E10E948101BD
:1004B00081E1CC2331F00E94A101682F6F71606649
:1004C00004C00E94A101682F6F7181E1CF910C944B
:1004D00081011F93CF93DF93EC01162F888186173C
:1004E000C9F161110FC0188265E58AE50E9481019A
:1004F00060E78CE50E94810184E0DF91CF911F913C
:100500000C942F02613089F465E58AE50E9481012F
:1005100060E78CE50E94810180E10E942F0260E487
:1005200085E20E94810180E012C0623099F46DE59D
:100530008AE50E9481016CE78CE50E9481018CE0D4
:100540000E942F0260E085E20E94810181E00E940A
:100550004E021883DF91CF911F910895CF92DF92C1
:10056000EF92FF920F931F93CF93DF93EC01CB0198
:10057000F89460E00E946902229A2A9880E00E9422
:10058000360180E00E943601D82E8823A1F0C12CCC
:10059000E82EFF24E7FCF0942C2D30E02E153F05CB
:1005A00054F48E01020F131F80E00E943601F801FF
:1005B0008083C394F1CF2A9A78948D2DDF91CF91C7
:1005C0001F910F91FF90EF90DF90CF9008950F93C0
:1005D0001F93CF93DF93EC018FAD882379F01FAE8B
:1005E0008E010F5F1F4FB801CE0102960E94AE022E
:1005F0008EAF61E0C8010E94690281E0DF91CF9176
:100600001F910F9108959F92AF92BF92CF92DF9268
:10061000EF92FF920F931F93CF93DF9300D0CDB74C
:10062000DEB76C018B01A42E8CE38417C4F1F8941F
:1006300060E0C8010E94690287E20E94A10187FF71
:10064000FBCF229A2A9880E88983AA8262E070E030
:10065000CE0101960E940A01912CBB24A7FCB09404
:10066000E92CF12CEA14FB047CF4EC0CFD1CF701E2
:1006700080810E943601F7018081992787FD90953E
:100680000E9468009394ECCF2A9A789462E0C801A3
:100690000E94690288E20E94A10183FFFBCF0F90B4
:1006A0000F90DF91CF911F910F91FF90EF90DF900E
:1006B000CF90BF90AF909F9008951F93CF93DF93FB
:1006C00000D0CDB7DEB72B968EAD9FAD2B979A831A
:1006D0008983FC011081113039F0E981FA811081A0
:1006E000113041F010E00FC088E20E94A10182FFAA
:1006F000F4CF09C08FE091E00E946F0060E0CE016E
:1007000009960E946902812F0F900F90DF91CF917F
:100710001F91089561E083E20E94810183E20E94BB
:10072000A10181FFFBCF84E20E94A101992781955D
:100730000CF490959595879508950E94B5008FE2E9
:100740000E9453000E941C010E947B0080E1809364
:100750001E0110921F0110925C0110925E01399AE5
:1007600041982FEF8FEF92E0215080409040E1F7C9
:1007700000C000C0419A2FEF8FEF92E021508040DF
:100780009040E1F700C000C00E9470010E94EE019D
:1007900060E071E080E00E94A1002FEF8FEF9DE10B
:1007A000215080409040E1F700C000000E9494007A
:1007B00061E08FE191E00E94690280915D018823F0
:1007C000F9F010925D016FE171E080E291E00E942A
:1007D000AE0280935C0161E08FE191E00E946902CA
:1007E00060E271E080E00E94A1002FEF8FEF9BE3B9
:1007F000215080409040E1F700C000000E9494002A
:100800002FEF8FEF9DE1215080409040E1F700C035
:100810000000D3CF0CD0A9C0A1D040F098D030F0C8
:1008200021F45F3F19F08AC05111D3C08DC0AED002
:1008300098F39923C9F35523B1F3951B550BBB27A7
:10084000AA2762177307840738F09F5F5F4F220F54
:10085000331F441FAA1FA9F333D00E2E3AF0E0E84D
:1008600030D091505040E695001CCAF729D0FE2F99
:1008700027D0660F771F881FBB1F2617370748072B
:10088000AB07B0E809F0BB0B802DBF01FF279358E1
:100890005F4F2AF09E3F510568F050C09AC05F3FFD
:1008A000ECF3983EDCF3869577956795B795F795C9
:1008B0009F5FC9F7880F911D9695879597F90895C1
:1008C000E1E0660F771F881FBB1F6217730784075D
:1008D000BA0720F0621B730B840BBA0BEE1F88F76C
:1008E000E09508955BD088F09F5790F0B92F992735
:1008F000B751A0F0D1F0660F771F881F991F1AF02B
:10090000BA95C9F712C0B13081F062D0B1E0089554
:100910005FC0672F782F8827B85F39F0B93FCCF3D5
:10092000869577956795B395D9F73EF49095809520
:10093000709561957F4F8F4F9F4F089597F99F67EF
:1009400080E870E060E008959FEF80EC0895002457
:100950000A941616170618060906089500240A9424
:1009600012161306140605060895092E0394000CAA
:1009700011F4882352F0BB0F40F4BF2B11F460FF39
:1009800004C06F5F7F4F8F4F9F4F089557FD905862
:10099000440F551F59F05F3F71F04795880F97FB43
:1009A000991F61F09F3F79F08795089512161306FD
:1009B0001406551FF2CF4695F1DF08C0161617062C
:1009C0001806991FF1CF8695710561050894089561
:1009D000E894BB2766277727CB0197F908950BD0BA
:1009E000C4CFB5DF28F0BADF18F0952309F0A6CF01
:1009F000ABCF1124EECFCADFA0F3959FD1F3950FB3
:100A000050E0551F629FF001729FBB27F00DB11D92
:100A1000639FAA27F00DB11DAA1F649F6627B00D22
:100A2000A11D661F829F2227B00DA11D621F739F0B
:100A3000B00DA11D621F839FA00D611D221F749F19
:100A40003327A00D611D231F849F600D211D822F60
:100A5000762F6A2F11249F5750408AF0E1F08823A7
:100A60004AF0EE0FFF1FBB1F661F771F881F9150B4
:100A70005040A9F79E3F510570F060CFAACF5F3F6D
:100A8000ECF3983EDCF3869577956795B795F795E7
:100A9000E7959F5FC1F7FE2B880F911D969587956F
:080AA00097F90895F894FFCFC7
:100AA8007374617274696E6720726164696F000D96
:0E0AB80073657420746F2069646C650A0D000C
:00000001FF
