:100000000C9434000C943E000C943E000C943E0082
:100010000C943E000C943E000C943E000C943E0068
:100020000C943E000C943E000C943E000C943E0058
:100030000C943E000C943E000C943E000C943E0048
:100040000C943E000C943E000C943E000C943E0038
:100050000C943E000C943E000C943E000C943E0028
:100060000C943E000C943E0011241FBECFEFD8E04C
:10007000DEBFCDBF0E9480000C9490000C94000065
:1000800090E09093C5008093C400E1ECF0E08081A3
:100090008869808386E08093C20008958091C000C3
:1000A00087FFFCCF8091C60008959091C00095FF16
:1000B000FCCF8093C60008951F93CF93DF93EC018C
:1000C00010E0812F992787FD9095FE010190002077
:1000D000E9F73197EC1BFD0B8E179F0740F4FE01EB
:1000E000E80FF91F80810E9455001F5FEACF8DE065
:1000F0000E9455008AE0DF91CF911F910C9455002A
:100100008FE20E94400081E40E9455002FEF8FEFA4
:100110009BE3215080409040E1F700C00000F3CF06
:04012000F894FFCF81
:00000001FF
