:100000000C94C7010C94E4010C94E4010C94E401F9
:100010000C94E4010C94E4010C94E4010C94E401CC
:100020000C94E4010C94E4010C94E4010C94E401BC
:100030000C94E4010C94E4010C94E4010C94E401AC
:100040000C94E4010C94E4010C94E4010C94E4019C
:100050000C94E4010C94E4010C94E4010C94E4018C
:100060000C94E4010C94E40105A84CCDB2D44EB933
:100070003836A9020C50B9918688083CA6AAAA2A4B
:10008000BE000000803F00000000000000000000F3
:100090005F000000000000000700070000000014DF
:1000A0007F147F14000000242A7F2A1200000023FE
:1000B0001308646200000036495522500000000019
:1000C000050300000000001C224100000000004168
:1000D000221C0000000000082A1C2A08000000085A
:1000E000083E0808000000A06000000000000008B2
:1000F0000808080800000060600000000000002000
:10010000100804020000003E5149453E0000000076
:10011000427F400000000062514949460000002231
:10012000414949360000001814127F1000000027D2
:10013000454545390000003C4A494930000000016E
:1001400071090503000000364949493600000006E0
:100150004949291E0000000036360000000000005A
:10016000AC6C0000000000081422410000000014E4
:1001700014141414000000412214080000000002AE
:1001800001510906000000324979413E0000007E1D
:100190000909097E0000007F494949360000003EF8
:1001A000414141220000007F4141221C0000007FAC
:1001B000494949410000007F090909010000003E4A
:1001C000414151720000007F0808087F0000004193
:1001D0007F4100000000002040413F010000007FFF
:1001E000081422410000007F404040400000007F92
:1001F000020C027F0000007F0408107F0000003E18
:100200004141413E0000007F090909060000003E0F
:100210004151215E0000007F091929460000002697
:100220004949493200000001017F01010000003FFF
:100230004040403F0000001F2040201F0000003FC2
:100240004038403F000000631408146300000003BE
:100250000478040300000061514945430000007F19
:10026000414100000000000204081020000000418D
:10027000417F000000000004020102040000008031
:100280008080808000000001020400000000002047
:10029000545454780000007F48444438000000382B
:1002A00044442800000000384444487F00000038DF
:1002B00054545418000000087E0902000000001881
:1002C000A4A4A47C0000007F0804047800000000BF
:1002D0007D00000000000080847D00000000007FA1
:1002E00010284400000000417F4000000000007C16
:1002F000041804780000007C08047C00000000382A
:1003000044443800000000FC2424180000000018B9
:100310002424FC00000000007C08040000000048C9
:1003200054542400000000047F4400000000003CFE
:1003300040407C000000001C2040201C0000003CCD
:100340004030403C00000044281028440000001CBD
:10035000A0A07C000000004464544C44000000084D
:1003600036410000000000007F0000000000004156
:100370003608000000000002010102010000000236
:1003800005050200000000FFFFFFFFFF0000112431
:100390001FBECFEFD8E0DEBFCDBF11E0A0E0B1E0DF
:1003A000E6E8F2E202C005900D92A231B107D9F75A
:1003B00021E0A2E1B1E001C01D92A931B207E1F74D
:1003C0000E948B0E0C9441110C940000AF92BF92CE
:1003D000CF92DF92EF92FF920F931F9300EE17E000
:1003E00022E030E040E050E064EB70E080E091E03B
:1003F0000E94390900E018EF24E130E044E650E0C3
:100400006AE070E084E190E00E94B6072FE130E0FE
:1004100044E150E06CE370E084E190E00E94590810
:1004200022E030E040E550E060E070E081E60E94CC
:10043000C60840EE57E06AE070E08AE090E00E9473
:100440004106C12C88EFD82E9FE1E92EF12C08E05F
:1004500010E023E030E042E050E060EA70E08AE043
:1004600090E00E946B0B02E010E02CE330E048E7E4
:1004700050E068EB7EE187EF92EC0E94EA090FEF13
:100480001FEF22E030E04CE350E068EC70E088ECD5
:1004900091E00E947209209117013091180140915A
:1004A00014015091150100EE17E060E070E080E06B
:1004B00090E00E945C06209117013091180140E005
:1004C00050E060E070E080911401909115010E946D
:1004D0005C06A12C28EFB22E3FE1C32ED12C42E0C6
:1004E000E42EF12C00E010E020EF30E444E650E090
:1004F00064E170E085E091E00E94AE0B00EE17E051
:1005000020EF30E040EF50E060E070E080E090E00D
:100510000E9485071F910F91FF90EF90DF90CF9081
:10052000BF90AF900895CF92DF92EF92FF920F931A
:100530001F9321E238E04FEF5FEF62E070E08BE065
:1005400091E00E942C0E6091170170911801769530
:100550006795809114019091150140E058EF9695B0
:1005600087950E9441066091170170911801769558
:1005700067958091140190911501A0EECA2EDD249B
:10058000DA94B8E0EB2EF12C0AE510E020E030E040
:1005900042E350E0969587950E943F0C60911701C9
:1005A00070911801769567958091140190911501CD
:1005B000AFE1CA2EA8EFDA2E04EB10E02AE530E016
:1005C00042E350E0969587950E943F0C6091170199
:1005D000709118017695679580911401909115019D
:1005E00000EEC02EDD24DA940EE011E024EB30E0C2
:1005F00042E350E0969587950E943F0C6091170169
:10060000709118017695679580911401909115016C
:10061000AFE1CA2EA8EFDA2E08E611E02EE031E0B5
:1006200042E350E0969587950E943F0C6091170138
:10063000709118017695679580911401909115013C
:100640002FE1C22ED12C32E0E32EF12C20E030E05D
:100650004EE250E0969587950E943F0C60911701FD
:10066000709118017695679580911401909115010C
:1006700020E030E047E350E0969587950E943F0CDC
:10068000609117017091180176956795809114011A
:1006900090911501C12CD12C20E030E04EE250E0C9
:1006A000969587950E943F0C6091170170911801F3
:1006B00076956795809114019091150120E030E0C6
:1006C00047E350E0969587950E943F0C6091170193
:1006D000709118017695679580911401909115019C
:1006E000C12C18EFD12E08E0E02EF12C0AE510E025
:1006F00020E030E042E350E0969587950E943F0C61
:100700006091170170911801769567958091140199
:1007100090911501AFE1CA2ED12C04EB10E02AE52F
:1007200030E042E350E0969587950E943F0C60913F
:100730001701709118017695679580911401909139
:100740001501C12C08EFD02E0EE011E024EB30E0B3
:1007500042E350E0969587950E943F0C6091170107
:10076000709118017695679580911401909115010B
:10077000AFE1CA2ED12C08E611E02EE031E042E3D1
:1007800050E0969587950E943F0C609117017091FB
:10079000180176956795809114019091150120EECE
:1007A000C22E27E0D22E32E0E32EF12C20E030E002
:1007B0004EE250E0969587950E943F0C609117019C
:1007C00070911801769567958091140190911501AB
:1007D00020E030E047E350E0969587950E943F0C7B
:1007E0001F910F91FF90EF90DF90CF90089581E0DF
:1007F0000E94E8040E94E6012FEF8FEF9BE3215057
:1008000080409040E1F700C0000080E090E00C9450
:100810002B0CF89484B18C6084B981E58CBD7894FC
:10082000089584B18C6284B924982A9A8CB5837D0A
:100830008CBD8DB581608DBD8CB580618CBD8CB556
:1008400080648CBD08958EBD0DB407FEFDCF8EB5BE
:100850000895FC0161157105B1F080818EBD615074
:1008600071096115710551F081810DB407FEFDCF4D
:100870009EB58EBD8081890F8083F1CF0DB407FEB8
:10088000FDCF8EB5808308956115710589F0FC0157
:1008900020812EBD615071096115710531F0FC0197
:1008A00021810DB407FEFDCFF4CF0DB407FEFDCFBF
:1008B00008952A9808952A9A08958EBD0DB407FECA
:1008C000FDCF089580E184B980E48CBD08950DB416
:1008D00007FEFDCF8EB50895559A5D980895559AF7
:1008E0005D9A0895569A5E980895569A5E9A08956C
:1008F000579A5F980895579A5F9A0895549A5C9A08
:100900000895549A5C980895CF93DF931F92CDB7C2
:10091000DEB789830E9472040E946C0489810E9460
:1009200023040E946F040F90DF91CF910C94750403
:10093000CF93DF931F92CDB7DEB789830E947504F2
:100940000E946C0489810E9423040F90DF91CF9153
:100950000C946F041F93CF93DF931F92CDB7DEB734
:10096000182F99830E9475040E946C0489810E944B
:100970002304812F0E9423040F90DF91CF911F91B8
:100980000C946F040F931F93CF93DF93EC018B01B3
:100990008AE20E948404CE010E94AA04C801DF9169
:1009A000CF911F910F910C94AA040F931F93CF9393
:1009B000DF93EC018B018BE20E948404CE010E9444
:1009C000AA04C801DF91CF911F910F910C94AA0442
:1009D00080931601811109C080EF90E0909315017A
:1009E0008093140180E491E00AC0813061F480E4D6
:1009F00091E0909315018093140180EF90E0909323
:100A000018018093170108950E9409040E946F0441
:100A10000E9475040E9481048FE19EE40197F1F722
:100A200000C000000E947E0480E00E94E8048FEE77
:100A30000E94840483E00E94980480E80E94980445
:100A400082E00E9498048FEC0E94840480E00E945F
:100A5000980481EC0E94980480E30E9498048DEE33
:100A60000E94840484E60E94980483E00E94980413
:100A700082E10E94980481E80E94980488EE0E9416
:100A8000840485E80E94980480E00E94980488E726
:100A90000E9498048BEC0E94840489E30E949804CD
:100AA0008CE20E94980480E00E94980484E30E94F3
:100AB000980482E00E94980487EF0E94840480E2F8
:100AC0000E9498048AEE0E94840480E00E949804A8
:100AD00080E00E94980480EC0E94840483E20E94DB
:100AE000980481EC0E94840480E10E94980485ECC3
:100AF0000E9484048EE30E94980488E20E94980475
:100B000087EC0E94840486E80E94980486E30E9491
:100B1000840488E40E94980487E30E94840480E0AF
:100B20000E9498048CE00E94840485E50E94980449
:100B300081EB0E94840480E00E94980488E10E9476
:100B4000980486EB0E94840488E00E94980482E85E
:100B50000E94980487E20E94980482EF0E94840415
:100B600080E00E94980486E20E94840481E00E9452
:100B7000980480EE0E9484048FE00E94980481E330
:100B80000E9498048BE20E9498048CE00E949804D2
:100B90008EE00E94980488E00E9498048EE40E94EF
:100BA000980481EF0E94980487E30E94980487E0EC
:100BB0000E94980480E10E94980483E00E949804B7
:100BC0008EE00E94980489E00E94980480E00E94D0
:100BD000980481EE0E94840480E00E9498048EE0D4
:100BE0000E94980484E10E94980483E00E94980483
:100BF00081E10E94980487E00E94980481E30E94AA
:100C0000980481EC0E94980488E40E94980488E08B
:100C10000E9498048FE00E9498048CE00E9498043F
:100C200081E30E94980486E30E9498048FE00E946A
:100C3000980481E10E9484049FEF2DEE82E09150A0
:100C400020408040E1F700C0000089E20E94840457
:100C50009FEF2DEE82E0915020408040E1F700C0F0
:100C600000000895CF93DF93EB01BC010E94C20402
:100C7000BE01CE010E94D5048CE2DF91CF910C948D
:100C80008404CF93DF93FB01EA0120911601222314
:100C900049F0213071F46091140170911501681BC5
:100CA000790BCF010E943206CE01DF91CF910C94D7
:100CB000AA04DF91CF9108952F923F924F925F92B5
:100CC0006F927F928F929F92AF92BF92CF92DF925C
:100CD000EF92FF920F931F93CF93DF9300D000D03A
:100CE00000D0CDB7DEB77C017E836D835A01490108
:100CF00028016901C61AD70A8A01081B190B17FFB8
:100D000003C0119501951109EA14FB0420F4222473
:100D10002394312C03C022242A94322CD7FE03C002
:100D2000D194C194D108442755274C195D095A83A1
:100D300049838D819E818815990518F421E030E062
:100D400002C02FEF3FEF38016C187D08A2016D81C2
:100D50007E81C7012B833C830E944106C301880F1B
:100D6000991F2B813C81E981FA818E179F0754F0EE
:100D7000EA14FB0499F06C187D08E20CF31C0817C8
:100D8000190724F34D815E814815590539F0600E2D
:100D9000711E420F531F5E834D83D8CF26960FB628
:100DA000F894DEBF0FBECDBFDF91CF911F910F91A1
:100DB000FF90EF90DF90CF90BF90AF909F908F907B
:100DC0007F906F905F904F903F902F900895CF92BB
:100DD000DF92EF92FF920F931F93CF93DF937C01EB
:100DE0008B01EA01690180911601811118C0B701D8
:100DF000640F751FC7010E94C204B801C8010E9498
:100E0000D5048CE20E94840400E010E00C171D075A
:100E100021F1C6010E94AA040F5F1F4FF7CF813056
:100E2000E1F4C8010E94C20480911401909115015F
:100E30008E199F09BC018C1B9D0B0E94D5048CE26E
:100E40000E94840400E010E00C171D0731F0C60179
:100E50000E94AA040F5F1F4FF7CFDF91CF911F9120
:100E60000F91FF90EF90DF90CF900895CF92DF9297
:100E7000EF92FF920F931F93CF93DF937C018B012F
:100E8000EA01690180911601811118C0B701C701FB
:100E90000E94C204B8016C0F7D1FC8010E94D504D6
:100EA0008CE20E94840400E010E00C171D0721F181
:100EB000C6010E94AA040F5F1F4FF7CF8130E1F4F3
:100EC000640F751FC8010E94C204809114019091A3
:100ED00015018E199F09BC010E94D5048CE20E9465
:100EE000840400E010E00C171D0731F0C6010E94D9
:100EF000AA040F5F1F4FF7CFDF91CF911F910F9182
:100F0000FF90EF90DF90CF900895AF92BF92CF9275
:100F1000DF92EF92FF920F931F93CF93DF93EC0139
:100F20007B016A01590198010E94E706B7016A0D29
:100F30007B1D9801A601CE010E94E7069801A5013C
:100F4000B701CE010E9436079801A501B701CE0175
:100F50008C0D9D1DDF91CF911F910F91FF90EF9010
:100F6000DF90CF90BF90AF900C943607AF92BF92B6
:100F7000CF92DF92EF92FF920F931F93CF93DF9365
:100F80006C015A017901E60EF71EEB01CE15DF0563
:100F900041F09801A501BE01C6010E94E706219615
:100FA000F5CFDF91CF911F910F91FF90EF90DF90E0
:100FB000CF90BF90AF9008952F923F924F925F9243
:100FC0006F927F928F929F92AF92BF92CF92DF9259
:100FD000EF92FF920F931F93CF93DF931C012B018E
:100FE0006901CC27DD27C41BD50B8E01000F111F13
:100FF0000E5F1F4FE12CF12CA60142018E0C9F1CAD
:10100000B4015101AC1ABD0AC5010E944106A601F6
:10101000B40131016C0E7D1EC3010E944106A60180
:1010200042018E189F08B401C3010E944106A60127
:10103000B401C5010E944106E016F106B4F08FEF3D
:10104000E81AF80AC701880F991F0196800F911FAF
:10105000222733272C1B3D0B2E153F0539F4C017D3
:10106000D1073CF000E010E001C0C801C017D10773
:1010700044F421969E01220F331F2F5F3F4F820FB2
:10108000931F1C161D0614F08C01B6CFDF91CF9173
:101090001F910F91FF90EF90DF90CF90BF90AF9096
:1010A0009F908F907F906F905F904F903F902F9088
:1010B00008954F925F926F927F928F929F92AF921C
:1010C000BF92CF92DF92EF92FF920F931F93CF9335
:1010D000DF933C012B015901CC27DD27C41BD50B25
:1010E0008E01000F111F0E5F1F4FE12CF12C6701C5
:1010F000CC0CDD1C9501A60142018E189F08B4019D
:10110000C3018C1B9D0B0E9436079501A601B401FB
:10111000C3018C0F9D1F0E943607E016F106ACF04C
:101120008FEFE81AF80A83E0C80ED11CC00ED11E5A
:10113000882799278C1B9D0B8E159F0539F4C017A6
:10114000D1073CF000E010E001C06801C017D107F2
:101150003CF42196CE01880F991F0196C80ED91E26
:101160001C161D0614F08601C2CFDF91CF911F918E
:101170000F91FF90EF90DF90CF90BF90AF909F9036
:101180008F907F906F905F904F9008952F923F9235
:101190004F925F926F927F928F929F92AF92BF9287
:1011A000CF92DF92EF92FF920F931F93CF93DF9333
:1011B00000D000D0CDB7DEB749835A83690128013A
:1011C00090EE980F903608F08FE198E0899F4001EB
:1011D00011243B01E12CF12CF401EA57F0404F01BE
:1011E000F401EE0DFF1D2490F981FB838A818C832D
:1011F000A12CB12C312CC1010A2C02C095958795E8
:101200000A94E2F780FF08C082019601A6016B8173
:101210007C81C3010E94B6079FEFA91AB90AEB812E
:10122000FC81EC0DFD1DFC83EB83F8E0AF16B104EF
:1012300011F78FEFE81AF80A6C0C7D1C98E0E9169C
:10124000F10471F60F900F900F900F90DF91CF91F6
:101250001F910F91FF90EF90DF90CF90BF90AF90D4
:101260009F908F907F906F905F904F903F902F90C6
:1012700008956F927F928F929F92AF92BF92CF927A
:10128000DF92EF92FF920F931F93CF93DF93EB01C7
:101290005A016901480126E02C9D30012D9D700CFA
:1012A00011247C01F70181917F01882361F0840181
:1012B0009601A501BE010E94C608CF3ED10590F758
:1012C000C60DD71DEFCFDF91CF911F910F91FF90EA
:1012D000EF90DF90CF90BF90AF909F908F907F90D6
:1012E0006F9008954F925F926F927F928F929F922C
:1012F000AF92BF92CF92DF92EF92FF920F931F9324
:10130000CF93DF93CDB7DEB72A970FB6F894DEBF41
:101310000FBECDBF7B015A016901480119821A82B3
:101320001B821C82FE01359626E0DF011D922A9564
:10133000E9F7009731F4960180E30E94C60881E046
:1013400032C040E02AE030E055245394540EE1E0EE
:10135000F0E0EC0FFD1FE40FF11DB9010E94900EAB
:101360008083CB01009741F486E08C9D30018D9DF8
:10137000700C1124452C14C0452DE6CFFE01E40D60
:10138000F11D808184019601A501B701805D0E9455
:10139000C608BFEEEB16F10410F4E60CF71C4A94F5
:1013A0004110ECCF852D2A960FB6F894DEBF0FBE04
:1013B000CDBFDF91CF911F910F91FF90EF90DF9004
:1013C000CF90BF90AF909F908F907F906F905F90E5
:1013D0004F9008952F923F924F925F926F927F921B
:1013E0008F929F92AF92BF92CF92DF92EF92FF9235
:1013F0000F931F93CF93DF9300D01F92CDB7DEB72B
:101400004B015C015B834A831901680120E030E0F5
:10141000A9010E94090F87FF20C087019601A10141
:101420006A817B818DE20E94C608B7FAB094B7F852
:10143000B0942A813B812F3E310588F426E02C9D13
:10144000C0012D9D900D11244A815B81480F591FC9
:101450005B834A8351E0598304C0198202C081E052
:1014600089832DEC3CEC4CE45DE3C501B4010E94A2
:10147000A50E4B015C010E947D0F2B013C018701F1
:101480009601A1016A817B81C2010E947209998142
:10149000980F99838C9D90018D9D300D1124C90169
:1014A00013E0880F991F1A95E1F7EA81FB818E0FEF
:1014B0009F1F8F3E910538F4220F331FAC01421B52
:1014C000530B5B834A8387019601A1016A817B816B
:1014D0008EE20E94C6088A819B818F3E910560F44E
:1014E00026E02C9DC0012D9D900D1124EA81FB81E9
:1014F000E80FF91FFB83EA83B20180E090E00E94CD
:10150000A90F9B01AC01C501B4010E94A40E20E00B
:1015100030E040E251E40E9494100E947D0FDC0113
:10152000CB0187019601A1016A817B810E9472092A
:1015300089818E5F0F900F900F90DF91CF911F9157
:101540000F91FF90EF90DF90CF90BF90AF909F9062
:101550008F907F906F905F904F903F902F90089565
:101560002F923F924F925F926F927F928F929F92B3
:10157000AF92BF92CF92DF92EF92FF920F931F93A1
:10158000CF93DF93CDB7DEB72A970FB6F894DEBFBF
:101590000FBECDBF5C01362E272E5C834B833A876E
:1015A00029871E830D8386E0829FA001839F500DB3
:1015B00011245A834983612C712CAB81BC816A163A
:1015C0007B0609F444C02501C12CD12CF601EA5751
:1015D000FC4FE491E32CF22C812C912C8E2F90E087
:1015E00098878F838F819885082C02C09595879561
:1015F0000A94E2F780FF09C00D811E8129853A8592
:10160000A901B701C2010E94B6079FEF891A990A82
:10161000A985BA85EA0EFB1EB8E08B16910411F776
:10162000EFEFCE1ADE0A29853A85420E531E38E0C6
:10163000C316D10459F64FEEA416B10420F48981E3
:101640009A81A80EB91E9FEF691A790AB6CF2A9619
:101650000FB6F894DEBF0FBECDBFDF91CF911F91C3
:101660000F91FF90EF90DF90CF90BF90AF909F9041
:101670008F907F906F905F904F903F902F90089544
:101680000F931F939A01EAE0E29FA001E39F500DA0
:10169000112400EE1FEF9A010E94B6071F910F91CF
:1016A00008950F931F9300911201109113014AE0C6
:1016B000469F9001479F300D112440911401509195
:1016C0001501861B970BBC0180E090E00E94B607D5
:1016D0001F910F9108958F929F92AF92BF92CF92D8
:1016E000DF92EF92FF920F931F93CF93DF936C01E2
:1016F0005B014A01E8014AE0409FC001419F900D13
:101700001124019746E0429FB001439F700D1124C0
:10171000609FA001619F500D709F500D1124400FDC
:10172000511FB501601B710B00E018EF9C01C60151
:101730000E94850787019E01A401B501C6010E9490
:10174000B00ADF91CF911F910F91FF90EF90DF9042
:10175000CF90BF90AF909F908F9008952F923F921F
:101760004F925F926F927F928F929F92AF92BF92B1
:10177000CF92DF92EF92FF920F931F93CF93DF935D
:1017800000D000D000D0CDB7DEB74C011B015A838A
:10179000498328013901FE82ED82DC82CB8265011A
:1017A0000B811C8197010E943909F40101900020EE
:1017B000E9F73197E819F90926E04D815E81249F08
:1017C000C001259F900D11248E9F40018F9F900C8A
:1017D0009E9F900C1124C301B2010E947D0FEB80EB
:1017E000FC800D811E812AE030E0AB0169817A81A5
:1017F000C401820D931D0E946B0B4D815E8106E03A
:10180000440F551F0A95E1F7420D531D480D591D10
:10181000EB80FC800D811E8129813A81C301B201D8
:101820000E94EA0926960FB6F894DEBF0FBECDBF20
:10183000DF91CF911F910F91FF90EF90DF90CF90AC
:10184000BF90AF909F908F907F906F905F904F90E0
:101850003F902F9008950F931F932091170130917F
:10186000180140911401509115018C0160E070E065
:1018700080E090E00E94B6071F910F9108952F928B
:101880003F924F925F926F927F928F929F92AF9210
:10189000BF92CF92DF92EF92FF920F931F93CF935D
:1018A000DF93CDB7DEB7AA970FB6F894DEBF0FBEB1
:1018B000CDBF2B013A011701DA8EC98EA701F7FEC1
:1018C00002C04F5F5F4F5595479566277727641B8A
:1018D000750B7E876D8779017AE5E71AF108D801E3
:1018E000AA55B109BC8BAB8BEA16FB0609F4F4C010
:1018F0001A821982AC01662757FD6095762F4B8FAF
:101900005C8F6D8F7E8FB701882777FD8095982F2C
:101910006F8F78A389A39AA38D859E85860D971DC9
:101920009A878987A201662757FD6095762F4BA37A
:101930005CA36DA37EA3B9016955710978A76FA354
:10194000A981BA81A215B3050CF06DC16B8D7C8D98
:101950008D8D9E8D0E94AB0F6D8B7E8B8F8B988FA4
:101960006F8D78A189A19AA10E94AB0F23EC35EF6E
:1019700048E450E40E94941020E030E044E353E453
:101980000E94100F4B015C010E940D0F6B017C0146
:1019900069857A8589819A81680F791F882777FD03
:1019A0008095982F0E94AB0F6D837E838F839887DD
:1019B0009B01AC01C701B6010E9494109B01AC01D0
:1019C0006D897E898F89988D0E94A50E0E94780F5F
:1019D0007E876D876BA17CA18DA19EA10E94AB0F1C
:1019E0006B017C01C501B4010E94F7102D813E817D
:1019F0004F8158850E9494109B01AC01C701B6012C
:101A00000E94A50E0E94780F7A8B698BAFA1B8A5B2
:101A1000BAA7A9A74B895C8969A57AA54617570774
:101A20000CF454C0E9A5FAA5BF01882777FD80957D
:101A3000982F0E94AB0F23EC35EF48E450E40E944E
:101A4000941020E030E044E353E40E94100F2B0197
:101A50003C010E940D0F2D813E814F8158850E94CF
:101A600094109B01AC016D897E898F89988D0E94AD
:101A7000A50E0E94780F4B015C01C301B2010E94C8
:101A8000F7102D813E814F8158850E9494109B0153
:101A9000AC01C701B6010E94A50E0E94780F2B0170
:101AA0003C01098D1A8D9B01A40169897A898D8574
:101AB0009E850E945C0629A53AA52F5F3F4F3AA755
:101AC00029A75A8A498A9E868D86A4CF89819A81C0
:101AD00001969A83898334CFBC01882777FD80954E
:101AE000982F0E94AB0F69837A838B839C83B70105
:101AF000882777FD8095982F0E94AB0F23EC35EF58
:101B000048E450E40E94941020E030E044E353E4C1
:101B10000E94100F4B015C010E940D0F6D837E83AC
:101B20008F8398878D859E85860D971DBC0188279C
:101B300077FD8095982F0E94AB0F69877A878B87F6
:101B40009C87B201882777FD8095982F0E94AB0F64
:101B50006B017C01C501B4010E94F7104B015C01CF
:101B6000B301ED85FE856E1B7F0B882777FD809581
:101B7000982F0E94AB0F2B013C019B01AC01C501CA
:101B8000B4010E9494109B01AC01C701B6010E94F0
:101B9000A50E0E94780F6D877E878F87988BA30193
:101BA00092016D817E818F8198850E9494109B01A6
:101BB000AC0169817A818B819C810E94A50E0E9473
:101BC000780F2B013C0129853A854B855C85C50141
:101BD000B4010E9494109B01AC01C701B6010E94A0
:101BE000A50E0E94780F6B017C0129853A854B85F3
:101BF0005C856D817E818F8198850E9494109B0108
:101C0000AC0169817A818B819C810E94A50E0E9422
:101C1000780FDC01CB01098D1A8D2D853E85A2013F
:101C2000B6010E945C06AA960FB6F894DEBF0FBEFE
:101C3000CDBFDF91CF911F910F91FF90EF90DF907B
:101C4000CF90BF90AF909F908F907F906F905F905C
:101C50004F903F902F900895AF92BF92CF92DF9216
:101C6000EF92FF920F931F93CF93DF937C01EB01D1
:101C70005A014091140150911501FC01019000207E
:101C8000E9F73197E81BF90B6A01D694C79486E00F
:101C90008C9FB0018D9F700D11246E9FC0016F9FAE
:101CA000900D7E9F900D112496958795C81AD90A9C
:101CB0006CE06C9FC0016D9F900D112489019C0107
:101CC00060E070E080E090E00E94B607BE0180E036
:101CD00090E00E94A90F20E030E040E05FE30E9426
:101CE000941020E030E040EC50E40E9494100E94F8
:101CF0007D0F85019E01AB01B601C7010E94390924
:101D0000DF91CF911F910F91FF90EF90DF90CF90D7
:101D1000BF90AF9008950E940405229A2A9AFFCF9F
:101D2000AA1BBB1B51E107C0AA1FBB1FA617B70701
:101D300010F0A61BB70B881F991F5A95A9F780951D
:101D40009095BC01CD0108955058BB27AA270ED00D
:101D5000A0C169D130F06ED120F031F49F3F11F471
:101D60001EF45EC10EF4E095E7FB54C1E92FB3D138
:101D700080F3BA17620773078407950718F071F4A8
:101D80009EF5CBC10EF4E0950B2EBA2FA02D0B01C2
:101D9000B90190010C01CA01A0011124FF27591BB0
:101DA00099F0593F50F4503E68F11A16F040A22FB6
:101DB000232F342F4427585FF3CF46953795279527
:101DC000A795F0405395C9F77EF41F16BA0B620B26
:101DD000730B840BBAF09150A1F0FF0FBB1F661F6D
:101DE000771F881FC2F70EC0BA0F621F731F841FB0
:101DF00048F4879577956795B795F7959E3F08F0D6
:101E0000B3CF9395880F08F09927EE0F9795879594
:101E10000895DCD008F481E0089514D1E3954AC117
:101E20000CD037C107D140F0FED030F021F45F3F35
:101E300019F0F0C0511172C1F3C04DD198F399233C
:101E4000C9F35523B1F3951B550BBB27AA2762177E
:101E50007307840738F09F5F5F4F220F331F441FC3
:101E6000AA1FA9F333D00E2E3AF0E0E830D09150FB
:101E70005040E695001CCAF729D0FE2F27D0660FE8
:101E8000771F881FBB1F261737074807AB07B0E827
:101E900009F0BB0B802DBF01FF2793585F4F2AF03D
:101EA0009E3F510568F0B6C039C15F3FECF3983EE4
:101EB000DCF3869577956795B795F7959F5FC9F79A
:101EC000880F911D9695879597F90895E1E0660F23
:101ED000771F881FBB1F621773078407BA0720F09C
:101EE000621B730B840BBA0BEE1F88F7E095089505
:101EF00004D06894B11112C10895F5D088F09F57AD
:101F000090F0B92F9927B751A0F0D1F0660F771F45
:101F1000881F991F1AF0BA95C9F712C0B13081F025
:101F2000FCD0B1E00895F9C0672F782F8827B85FFB
:101F300039F0B93FCCF3869577956795B395D9F786
:101F40003EF490958095709561957F4F8F4F9F4F90
:101F50000895E89409C097FB3EF49095809570959C
:101F600061957F4F8F4F9F4F9923A9F0F92F96E9E5
:101F7000BB279395F695879577956795B795F1115A
:101F8000F8CFFAF4BB0F11F460FF1BC06F5F7F4FF7
:101F90008F4F9F4F16C0882311F096E911C0772309
:101FA00021F09EE8872F762F05C0662371F096E812
:101FB000862F70E060E02AF09A95660F771F881FE1
:101FC000DAF7880F9695879597F90895990F000885
:101FD000550FAA0BE0E8FEEF16161706E807F907FB
:101FE000C0F012161306E407F50798F0621B730B96
:101FF000840B950B39F40A2661F0232B242B252B17
:1020000021F408950A2609F4A140A6958FEF811DB9
:10201000811D089597F99F6780E870E060E008955A
:102020009FEF80EC089500240A94161617061806F0
:102030000906089500240A941216130614060506CC
:102040000895EECF50D0E8F3E894E0E0BB279F5727
:10205000F0F02AED3FE049EC06C0EE0FBB0F661F23
:10206000771F881F28F0B23A62077307840728F0A9
:10207000B25A620B730B840BE3959A9572F7803812
:1020800030F49A95BB0F661F771F881FD2F79048D0
:10209000B6C0092E0394000C11F4882352F0BB0F34
:1020A00040F4BF2B11F460FF04C06F5F7F4F8F4F70
:1020B0009F4F0895EF93E0FF06C0A2EA2AED3FE0AC
:1020C00049EC5FEB53DEE5DF0F90039401FC905881
:1020D000E8E6F0E0A0C057FD9058440F551F59F0B6
:1020E0005F3F71F04795880F97FB991F61F09F3F05
:1020F00079F087950895121613061406551FF2CF2E
:102100004695F1DF08C0161617061806991FF1CF7D
:1021100086957105610508940895E894BB276627A4
:102120007727CB0197F908950BD0B3CF7CDF28F048
:1021300081DF18F0952309F06DCF72CF1124EECF17
:10214000CADFA0F3959FD1F3950F50E0551F629F12
:10215000F001729FBB27F00DB11D639FAA27F00D00
:10216000B11DAA1F649F6627B00DA11D661F829F27
:102170002227B00DA11D621F739FB00DA11D621F0C
:10218000839FA00D611D221F749F3327A00D611D29
:10219000231F849F600D211D822F762F6A2F11240B
:1021A0009F5750408AF0E1F088234AF0EE0FFF1F5E
:1021B000BB1F661F771F881F91505040A9F79E3F95
:1021C000510570F027CFAACF5F3FECF3983EDCF3C8
:1021D000869577956795B795F795E7959F5FC1F7D2
:1021E000FE2B880F911D9695879597F908959F93DB
:1021F00029DF0F9007FCEE5F5DCF9F3F31F09150DC
:1022000020F4879577956795B795880F911D9695DA
:10221000879597F908959F938F937F936F93FF937B
:10222000EF939B01AC0180DFEF91FF9105D02F91DF
:102230003F914F915F9178CFDF93CF931F930F938F
:10224000FF92EF92DF927B018C01689405C0DA2E39
:10225000EF0176DFFE01E894A59125913591459136
:102260005591AEF3EF0182DDFE019701A801DA94EA
:1022700079F7DF90EF90FF900F911F91CF91DF9151
:062280000895F894FFCF61
:1022860061626364004761696E20004E61736C6F22
:022296007600D0
:00000001FF
